{
  "address": "0x51C523E0eEDD112C5a08803951466Cd10271b0fF",
  "abi": [
    {
      "anonymous": false,
      "inputs": [
        {
          "indexed": true,
          "internalType": "contract IERC3000Executor",
          "name": "executor",
          "type": "address"
        },
        {
          "indexed": false,
          "internalType": "contract IERC3000",
          "name": "queue",
          "type": "address"
        },
        {
          "indexed": true,
          "internalType": "contract IERC20",
          "name": "token",
          "type": "address"
        },
        {
          "indexed": true,
          "internalType": "address",
          "name": "registrant",
          "type": "address"
        },
        {
          "indexed": false,
          "internalType": "string",
          "name": "name",
          "type": "string"
        }
      ],
      "name": "Registered",
      "type": "event"
    },
    {
      "anonymous": false,
      "inputs": [
        {
          "indexed": true,
          "internalType": "contract IERC3000Executor",
          "name": "executor",
          "type": "address"
        },
        {
          "indexed": false,
          "internalType": "bytes",
          "name": "metadata",
          "type": "bytes"
        }
      ],
      "name": "SetMetadata",
      "type": "event"
    },
    {
      "inputs": [
        {
          "internalType": "string",
          "name": "",
          "type": "string"
        }
      ],
      "name": "nameUsed",
      "outputs": [
        {
          "internalType": "bool",
          "name": "",
          "type": "bool"
        }
      ],
      "stateMutability": "view",
      "type": "function"
    },
    {
      "inputs": [
        {
          "internalType": "contract IERC3000Executor",
          "name": "_executor",
          "type": "address"
        },
        {
          "internalType": "contract IERC3000",
          "name": "_queue",
          "type": "address"
        },
        {
          "internalType": "contract IERC20",
          "name": "_token",
          "type": "address"
        },
        {
          "internalType": "string",
          "name": "_name",
          "type": "string"
        },
        {
          "internalType": "bytes",
          "name": "_initialMetadata",
          "type": "bytes"
        }
      ],
      "name": "register",
      "outputs": [],
      "stateMutability": "nonpayable",
      "type": "function"
    },
    {
      "inputs": [
        {
          "internalType": "bytes",
          "name": "_metadata",
          "type": "bytes"
        }
      ],
      "name": "setMetadata",
      "outputs": [],
      "stateMutability": "nonpayable",
      "type": "function"
    }
  ],
  "transactionHash": "0x239ed4497d5024cf7dcc431a0748b23a30aaba85b4db1d7ab28f205d61be3d1f",
  "args": [],
  "solcInputHash": "ab40b143b50742d171e87e19303a80b3",
  "bytecode": "0x608060405234801561001057600080fd5b50610588806100206000396000f3fe608060405234801561001057600080fd5b50600436106100415760003560e01c80630b905028146100465780630b9b6e8b14610138578063ee57e36f146101f2575b600080fd5b610136600480360360a081101561005c57600080fd5b73ffffffffffffffffffffffffffffffffffffffff823581169260208101358216926040820135909216918101906080810160608201356401000000008111156100a557600080fd5b8201836020820111156100b757600080fd5b803590602001918460018302840111640100000000831117156100d957600080fd5b9193909290916020810190356401000000008111156100f757600080fd5b82018360208201111561010957600080fd5b8035906020019184600183028401116401000000008311171561012b57600080fd5b509092509050610298565b005b6101de6004803603602081101561014e57600080fd5b81019060208101813564010000000081111561016957600080fd5b82018360208201111561017b57600080fd5b8035906020019184600183028401116401000000008311171561019d57600080fd5b91908080601f016020809104026020016040519081016040528093929190818152602001838380828437600092019190915250929550610471945050505050565b604080519115158252519081900360200190f35b6101366004803603602081101561020857600080fd5b81019060208101813564010000000081111561022357600080fd5b82018360208201111561023557600080fd5b8035906020019184600183028401116401000000008311171561025757600080fd5b91908080601f016020809104026020016040519081016040528093929190818152602001838380828437600092019190915250929550610491945050505050565b6000848460405180838380828437919091019485525050604051928390036020019092205460ff16159150610330905057604080517f08c379a000000000000000000000000000000000000000000000000000000000815260206004820152601360248201527f72656769737472793a206e616d65207573656400000000000000000000000000604482015290519081900360640190fd5b60016000858560405180838380828437919091019485525050604080516020948190038501812080547fffffffffffffffffffffffffffffffffffffffffffffffffffffffffffffff00169615159690961790955573ffffffffffffffffffffffffffffffffffffffff8b8116865293850181815290850188905233948a8516948d1693507f8dfddb09c08116a0346477db61e50edc35c83622ff678af78a0146c5ceb77a2c92508b918a918a9160608201848480828437600083820152604051601f9091017fffffffffffffffffffffffffffffffffffffffffffffffffffffffffffffffe016909201829003965090945050505050a46104688783838080601f01602080910402602001604051908101604052809392919081815260200183838082843760009201919091525061049e92505050565b50505050505050565b805160208183018101805160008252928201919093012091525460ff1681565b61049b338261049e565b50565b8173ffffffffffffffffffffffffffffffffffffffff167f8fa78869a20b896e44b704e4e5ee97cbb81cc5639ff16aec59c41cd97427b5a6826040518080602001828103825283818151815260200191508051906020019080838360005b838110156105145781810151838201526020016104fc565b50505050905090810190601f1680156105415780820380516001836020036101000a031916815260200191505b509250505060405180910390a2505056fea2646970667358221220b56746de33649d00add6dce08be4835eac5e3306c9e55ece6e2c5dbf9c18e94664736f6c63430006080033",
  "devdoc": {
    "methods": {}
  },
  "userdoc": {
    "methods": {}
  },
  "storageLayout": {
    "storage": [
      {
        "astId": 1650,
        "contract": "@aragon/govern-core/contracts/GovernRegistry.sol:GovernRegistry",
        "label": "nameUsed",
        "offset": 0,
        "slot": "0",
        "type": "t_mapping(t_string_memory_ptr,t_bool)"
      }
    ],
    "types": {
      "t_bool": {
        "encoding": "inplace",
        "label": "bool",
        "numberOfBytes": "1"
      },
      "t_mapping(t_string_memory_ptr,t_bool)": {
        "encoding": "mapping",
        "key": "t_string_memory_ptr",
        "label": "mapping(string => bool)",
        "numberOfBytes": "32",
        "value": "t_bool"
      },
      "t_string_memory_ptr": {
        "encoding": "bytes",
        "label": "string",
        "numberOfBytes": "32"
      }
    }
  }
}