{
  "address": "0x5FC8d32690cc91D4c39d9d3abcBD16989F875707",
  "abi": [
    {
      "inputs": [
        {
          "internalType": "contract GovernRegistry",
          "name": "_registry",
          "type": "address"
        },
        {
          "internalType": "contract GovernFactory",
          "name": "_governFactory",
          "type": "address"
        },
        {
          "internalType": "contract GovernQueueFactory",
          "name": "_queueFactory",
          "type": "address"
        },
        {
          "internalType": "contract GovernTokenFactory",
          "name": "_tokenFactory",
          "type": "address"
        }
      ],
      "stateMutability": "nonpayable",
      "type": "constructor"
    },
    {
      "inputs": [],
      "name": "governFactory",
      "outputs": [
        {
          "internalType": "contract GovernFactory",
          "name": "",
          "type": "address"
        }
      ],
      "stateMutability": "view",
      "type": "function"
    },
    {
      "inputs": [
        {
          "internalType": "string",
          "name": "_name",
          "type": "string"
        },
        {
          "internalType": "contract IERC20",
          "name": "_token",
          "type": "address"
        },
        {
          "internalType": "string",
          "name": "_tokenName",
          "type": "string"
        },
        {
          "internalType": "string",
          "name": "_tokenSymbol",
          "type": "string"
        },
        {
          "internalType": "bool",
          "name": "_useProxies",
          "type": "bool"
        }
      ],
      "name": "newGovernWithoutConfig",
      "outputs": [
        {
          "internalType": "contract Govern",
          "name": "govern",
          "type": "address"
        },
        {
          "internalType": "contract GovernQueue",
          "name": "queue",
          "type": "address"
        }
      ],
      "stateMutability": "nonpayable",
      "type": "function"
    },
    {
      "inputs": [],
      "name": "queueFactory",
      "outputs": [
        {
          "internalType": "contract GovernQueueFactory",
          "name": "",
          "type": "address"
        }
      ],
      "stateMutability": "view",
      "type": "function"
    },
    {
      "inputs": [],
      "name": "registry",
      "outputs": [
        {
          "internalType": "contract GovernRegistry",
          "name": "",
          "type": "address"
        }
      ],
      "stateMutability": "view",
      "type": "function"
    },
    {
      "inputs": [],
      "name": "tokenFactory",
      "outputs": [
        {
          "internalType": "contract GovernTokenFactory",
          "name": "",
          "type": "address"
        }
      ],
      "stateMutability": "view",
      "type": "function"
    }
  ],
  "transactionHash": "0xc5a7df49d1335f128409a291815b75a2caa5d1a1fa9e4aac36c3bd4697a0602d",
  "args": [
    "0x51C523E0eEDD112C5a08803951466Cd10271b0fF",
    "0x091bB90D7D53dE1B8C3C1737f7F242b78E5f28F0",
    "0x544ADee3ee41aEa40bED5c6E0a5575A20169362e",
    "0xC52666F505B8231d6C4C793E46B9aF4f00405653"
  ],
  "solcInputHash": "ab40b143b50742d171e87e19303a80b3",
  "bytecode": "0x608060405234801561001057600080fd5b50604051610f67380380610f6783398101604081905261002f91610083565b600080546001600160a01b03199081166001600160a01b03958616179091556001805482169385169390931790925560028054831691841691909117905560038054909116929091169190911790556100f9565b60008060008060808587031215610098578384fd5b84516100a3816100e1565b60208601519094506100b4816100e1565b60408601519093506100c5816100e1565b60608601519092506100d6816100e1565b939692955090935050565b6001600160a01b03811681146100f657600080fd5b50565b610e5f806101086000396000f3fe608060405234801561001057600080fd5b50600436106100675760003560e01c8063894095161161005057806389409516146100925780639fd39b7d1461009a578063e77772fe146100bb57610067565b80636ca4110e1461006c5780637b1039991461008a575b600080fd5b6100746100c3565b6040516100819190610d3a565b60405180910390f35b6100746100df565b6100746100fb565b6100ad6100a8366004610a08565b610117565b604051610081929190610d81565b610074610831565b60015473ffffffffffffffffffffffffffffffffffffffff1681565b60035473ffffffffffffffffffffffffffffffffffffffff1681565b60005473ffffffffffffffffffffffffffffffffffffffff1681565b600080600083610128576000610152565b8a8a60405160200161013b929190610b37565b604051602081830303815290604052805190602001205b60015490915073ffffffffffffffffffffffffffffffffffffffff1663a0b19f4a3061017c61084d565b846040518463ffffffff1660e01b815260040161019b93929190610bba565b602060405180830381600087803b1580156101b557600080fd5b505af11580156101c9573d6000803e3d6000fd5b505050506040513d601f19601f820116820180604052508101906101ed91906109b3565b6000546040517fad921bf400000000000000000000000000000000000000000000000000000000815291935073ffffffffffffffffffffffffffffffffffffffff169063ad921bf4906102469085908590600401610d5b565b602060405180830381600087803b15801561026057600080fd5b505af1158015610274573d6000803e3d6000fd5b505050506040513d601f19601f8201168201806040525081019061029891906109b3565b925073ffffffffffffffffffffffffffffffffffffffff8916610379576002546040517f20a8202000000000000000000000000000000000000000000000000000000000815273ffffffffffffffffffffffffffffffffffffffff909116906320a82020906103249030908c908c908c908c906012903390670de0b6b3a7640000908f90600401610b47565b6040805180830381600087803b15801561033d57600080fd5b505af1158015610351573d6000803e3d6000fd5b505050506040513d601f19601f8201168201806040525081019061037591906109cf565b5098505b600360009054906101000a900473ffffffffffffffffffffffffffffffffffffffff1673ffffffffffffffffffffffffffffffffffffffff16630b90502884848c8f8f6040518663ffffffff1660e01b81526004016103dc959493929190610da8565b600060405180830381600087803b1580156103f657600080fd5b505af115801561040a573d6000803e3d6000fd5b505060408051600680825260e08201909252606093509150816020015b61042f6108b1565b81526020019060019003908161042757905050604080516060810190915290915080600081527f977d896400000000000000000000000000000000000000000000000000000000602082015273ffffffffffffffffffffffffffffffffffffffff604090910152815182906000906104a357fe5b6020908102919091010152604080516060810190915280600081527f3a139c7100000000000000000000000000000000000000000000000000000000602082015273ffffffffffffffffffffffffffffffffffffffff60409091015281518290600190811061050e57fe5b6020908102919091010152604080516060810190915280600081527f7057615800000000000000000000000000000000000000000000000000000000602082015273ffffffffffffffffffffffffffffffffffffffff60409091015281518290600290811061057957fe5b6020908102919091010152604080516060810190915280600081527f7289676100000000000000000000000000000000000000000000000000000000602082015273ffffffffffffffffffffffffffffffffffffffff86166040909101528151829060039081106105e657fe5b6020908102919091010152604080516060810190915280600181526020018473ffffffffffffffffffffffffffffffffffffffff16637e8c7f086040518163ffffffff1660e01b815260040160206040518083038186803b15801561064a57600080fd5b505afa15801561065e573d6000803e3d6000fd5b505050506040513d601f19601f82011682018060405250810190610682919061096c565b7fffffffff00000000000000000000000000000000000000000000000000000000168152306020909101528151829060049081106106bc57fe5b6020908102919091010152604080516060810190915280600281526020018473ffffffffffffffffffffffffffffffffffffffff16637e8c7f086040518163ffffffff1660e01b815260040160206040518083038186803b15801561072057600080fd5b505afa158015610734573d6000803e3d6000fd5b505050506040513d601f19601f82011682018060405250810190610758919061096c565b7fffffffff00000000000000000000000000000000000000000000000000000000168152600060209091015281518290600590811061079357fe5b60209081029190910101526040517f1c47671b00000000000000000000000000000000000000000000000000000000815273ffffffffffffffffffffffffffffffffffffffff841690631c47671b906107f0908490600401610c9f565b600060405180830381600087803b15801561080a57600080fd5b505af115801561081e573d6000803e3d6000fd5b5050505050509850989650505050505050565b60025473ffffffffffffffffffffffffffffffffffffffff1681565b6108556108d3565b61085d61090e565b6040518060a0016040528060008152602001828152602001828152602001600073ffffffffffffffffffffffffffffffffffffffff1681526020016040518060200160405280600081525081525091505090565b6040805160608101909152806000815260006020820181905260409091015290565b6040518060a00160405280600081526020016108ed61090e565b81526020016108fa61090e565b815260006020820152606060409091015290565b604080518082019091526000808252602082015290565b60008083601f840112610936578182fd5b50813567ffffffffffffffff81111561094d578182fd5b60208301915083602082850101111561096557600080fd5b9250929050565b60006020828403121561097d578081fd5b81517fffffffff00000000000000000000000000000000000000000000000000000000811681146109ac578182fd5b9392505050565b6000602082840312156109c4578081fd5b81516109ac81610e04565b600080604083850312156109e1578081fd5b82516109ec81610e04565b60208401519092506109fd81610e04565b809150509250929050565b60008060008060008060008060a0898b031215610a23578384fd5b883567ffffffffffffffff80821115610a3a578586fd5b610a468c838d01610925565b909a50985060208b01359150610a5b82610e04565b90965060408a01359080821115610a70578586fd5b610a7c8c838d01610925565b909750955060608b0135915080821115610a94578485fd5b50610aa18b828c01610925565b90945092505060808901358015158114610ab9578182fd5b809150509295985092959890939650565b600082845282826020860137806020848601015260207fffffffffffffffffffffffffffffffffffffffffffffffffffffffffffffffe0601f85011685010190509392505050565b805173ffffffffffffffffffffffffffffffffffffffff168252602090810151910152565b6000828483379101908152919050565b600073ffffffffffffffffffffffffffffffffffffffff808c16835260e06020840152610b7860e084018b8d610aca565b8381036040850152610b8b818a8c610aca565b60ff9890981660608501525094909416608082015260a0810192909252151560c0909101525095945050505050565b600073ffffffffffffffffffffffffffffffffffffffff808616835260206060818501528551606085015280860151610bf66080860182610b12565b506040860151610c0960c0860182610b12565b50816060870151166101008501526080860151915060e0610120850152815180610140860152835b81811015610c4e5783810183015186820161016001528201610c31565b81811115610c60578461016083880101525b506040850195909552505050601f919091017fffffffffffffffffffffffffffffffffffffffffffffffffffffffffffffffe016016101600192915050565b602080825282518282018190526000919060409081850190868401855b82811015610d2d578151805160038110610cd257fe5b8552808701517fffffffff00000000000000000000000000000000000000000000000000000000168786015285015173ffffffffffffffffffffffffffffffffffffffff168585015260609093019290850190600101610cbc565b5091979650505050505050565b73ffffffffffffffffffffffffffffffffffffffff91909116815260200190565b73ffffffffffffffffffffffffffffffffffffffff929092168252602082015260400190565b73ffffffffffffffffffffffffffffffffffffffff92831681529116602082015260400190565b600073ffffffffffffffffffffffffffffffffffffffff8088168352808716602084015280861660408401525060a06060830152610dea60a083018486610aca565b828103608090930192909252815260200195945050505050565b73ffffffffffffffffffffffffffffffffffffffff81168114610e2657600080fd5b5056fea26469706673582212204e64d9e1f3c7d0e4d327c16a76dde889bd68c85c391ab0f3a7aff8c0d22ef84164736f6c63430006080033",
  "devdoc": {
    "methods": {}
  },
  "userdoc": {
    "methods": {}
  },
  "storageLayout": {
    "storage": [
      {
        "astId": 4259,
        "contract": "contracts/GovernBaseFactory.sol:GovernBaseFactory",
        "label": "governFactory",
        "offset": 0,
        "slot": "0",
        "type": "t_contract(GovernFactory)4612"
      },
      {
        "astId": 4261,
        "contract": "contracts/GovernBaseFactory.sol:GovernBaseFactory",
        "label": "queueFactory",
        "offset": 0,
        "slot": "1",
        "type": "t_contract(GovernQueueFactory)4711"
      },
      {
        "astId": 4263,
        "contract": "contracts/GovernBaseFactory.sol:GovernBaseFactory",
        "label": "tokenFactory",
        "offset": 0,
        "slot": "2",
        "type": "t_contract(GovernTokenFactory)3829"
      },
      {
        "astId": 4265,
        "contract": "contracts/GovernBaseFactory.sol:GovernBaseFactory",
        "label": "registry",
        "offset": 0,
        "slot": "3",
        "type": "t_contract(GovernRegistry)1722"
      }
    ],
    "types": {
      "t_contract(GovernFactory)4612": {
        "encoding": "inplace",
        "label": "contract GovernFactory",
        "numberOfBytes": "20"
      },
      "t_contract(GovernQueueFactory)4711": {
        "encoding": "inplace",
        "label": "contract GovernQueueFactory",
        "numberOfBytes": "20"
      },
      "t_contract(GovernRegistry)1722": {
        "encoding": "inplace",
        "label": "contract GovernRegistry",
        "numberOfBytes": "20"
      },
      "t_contract(GovernTokenFactory)3829": {
        "encoding": "inplace",
        "label": "contract GovernTokenFactory",
        "numberOfBytes": "20"
      }
    }
  }
}