{
  "address": "0xC52666F505B8231d6C4C793E46B9aF4f00405653",
  "abi": [
    {
      "inputs": [],
      "stateMutability": "nonpayable",
      "type": "constructor"
    },
    {
      "anonymous": false,
      "inputs": [
        {
          "indexed": false,
          "internalType": "contract GovernToken",
          "name": "token",
          "type": "address"
        },
        {
          "indexed": false,
          "internalType": "contract GovernMinter",
          "name": "minter",
          "type": "address"
        }
      ],
      "name": "CreatedToken",
      "type": "event"
    },
    {
      "inputs": [],
      "name": "distributorBase",
      "outputs": [
        {
          "internalType": "address",
          "name": "",
          "type": "address"
        }
      ],
      "stateMutability": "view",
      "type": "function"
    },
    {
      "inputs": [],
      "name": "minterBase",
      "outputs": [
        {
          "internalType": "address",
          "name": "",
          "type": "address"
        }
      ],
      "stateMutability": "view",
      "type": "function"
    },
    {
      "inputs": [
        {
          "internalType": "address",
          "name": "_initialMinter",
          "type": "address"
        },
        {
          "internalType": "string",
          "name": "_tokenName",
          "type": "string"
        },
        {
          "internalType": "string",
          "name": "_tokenSymbol",
          "type": "string"
        },
        {
          "internalType": "uint8",
          "name": "_tokenDecimals",
          "type": "uint8"
        },
        {
          "internalType": "address",
          "name": "_mintAddr",
          "type": "address"
        },
        {
          "internalType": "uint256",
          "name": "_mintAmount",
          "type": "uint256"
        },
        {
          "internalType": "bool",
          "name": "_useProxies",
          "type": "bool"
        }
      ],
      "name": "newToken",
      "outputs": [
        {
          "internalType": "contract GovernToken",
          "name": "token",
          "type": "address"
        },
        {
          "internalType": "contract GovernMinter",
          "name": "minter",
          "type": "address"
        }
      ],
      "stateMutability": "nonpayable",
      "type": "function"
    },
    {
      "inputs": [],
      "name": "tokenBase",
      "outputs": [
        {
          "internalType": "address",
          "name": "",
          "type": "address"
        }
      ],
      "stateMutability": "view",
      "type": "function"
    }
  ],
  "transactionHash": "0x7e408de4f879bd33370003970eae7cf1e1dcb476e1cdf71fcc4f947d5a95469f",
  "args": [],
  "solcInputHash": "ab40b143b50742d171e87e19303a80b3",
  "bytecode": "0x60806040523480156200001157600080fd5b50620000256001600160e01b036200002b16565b620004eb565b600080546040516001600160a01b0390911691906200004a9062000314565b62000057929190620004af565b604051809103906000f08015801562000074573d6000803e3d6000fd5b50600260006101000a8154816001600160a01b0302191690836001600160a01b03160217905550600080620000f6306040518060400160405280601081526020016f476f7665726e546f6b656e206261736560801b8152506040518060400160405280600381526020016223aa2160e91b81525060006200027960201b60201c565b604051630589a9a360e31b815291935091506001600160a01b03831690632c4d4d189062000129908490600401620003bc565b600060405180830381600087803b1580156200014457600080fd5b505af115801562000159573d6000803e3d6000fd5b50506040516394d008ef60e01b81526001600160a01b03841692506394d008ef91506200018e903390600190600401620003d0565b600060405180830381600087803b158015620001a957600080fd5b505af1158015620001be573d6000803e3d6000fd5b5050604051630d3feb8360e41b81526001600160a01b038416925063d3feb8309150620001f49060009060019060040162000459565b602060405180830381600087803b1580156200020f57600080fd5b505af115801562000224573d6000803e3d6000fd5b505050506040513d601f19601f820116820180604052508101906200024a91906200033e565b50600080546001600160a01b039384166001600160a01b03199182161790915560018054929093169116179055565b600080308585856040516200028e9062000322565b6200029d94939291906200040a565b604051809103906000f080158015620002ba573d6000803e3d6000fd5b50600254604051919350839188916001600160a01b031690620002dd9062000330565b620002eb93929190620004c8565b604051809103906000f08015801562000308573d6000803e3d6000fd5b50905094509492505050565b610d5c8062005b0483390190565b611fe7806200686083390190565b61255d806200884783390190565b60006020828403121562000350578081fd5b81516001600160a01b038116811462000367578182fd5b9392505050565b60008151808452815b81811015620003955760208185018101518683018201520162000377565b81811115620003a75782602083870101525b50601f01601f19169290920160200192915050565b6001600160a01b0391909116815260200190565b6001600160a01b039290921682526020820152606060408201819052600990820152681d195cdd081b5a5b9d60ba1b608082015260a00190565b6001600160a01b038516815260806020820181905260009062000430908301866200036e565b82810360408401526200044481866200036e565b91505060ff8316606083015295945050505050565b9182526020820152608060408201819052600790820152666e6f207472656560c81b60a082015260c0606082018190526010908201526f1d195cdd081b595c9adb19481b5a5b9d60821b60e08201526101000190565b6001600160a01b03929092168252602082015260400190565b6001600160a01b0393841681529183166020830152909116604082015260600190565b61560980620004fb6000396000f3fe60806040523480156200001157600080fd5b5060043610620000525760003560e01c806320a820201462000057578063943e9ec01462000087578063b61daaee14620000a0578063ec8528f914620000aa575b600080fd5b6200006e6200006836600462000b34565b620000b4565b6040516200007e92919062000fc3565b60405180910390f35b620000916200078c565b6040516200007e919062000dc1565b62000091620007a8565b62000091620007c4565b600080826200014057620001358b8b8b8080601f01602080910402602001604051908101604052809392919081815260200183838082843760009201919091525050604080516020601f8f018190048102820181019092528d815292508d91508c90819084018382808284376000920191909152508c9250620007e0915050565b90925090506200030d565b6200020c63f6d2ee8660e01b308c8c8c8c8c604051602401620001699695949392919062000de2565b604080517fffffffffffffffffffffffffffffffffffffffffffffffffffffffffffffffe08184030181529190526020810180517bffffffffffffffffffffffffffffffffffffffffffffffffffffffff167fffffffff000000000000000000000000000000000000000000000000000000009093169290921790915260005473ffffffffffffffffffffffffffffffffffffffff169063ffffffff6200088816565b6002546040519193506200030a917fc0c53b8b000000000000000000000000000000000000000000000000000000009162000267918691309173ffffffffffffffffffffffffffffffffffffffff9091169060240162000f93565b604080517fffffffffffffffffffffffffffffffffffffffffffffffffffffffffffffffe08184030181529190526020810180517bffffffffffffffffffffffffffffffffffffffffffffffffffffffff167fffffffff000000000000000000000000000000000000000000000000000000009093169290921790915260015473ffffffffffffffffffffffffffffffffffffffff169063ffffffff6200088816565b90505b6040517f2c4d4d1800000000000000000000000000000000000000000000000000000000815273ffffffffffffffffffffffffffffffffffffffff831690632c4d4d18906200036190849060040162000dc1565b600060405180830381600087803b1580156200037c57600080fd5b505af115801562000391573d6000803e3d6000fd5b5050505060008411156200042a576040517f94d008ef00000000000000000000000000000000000000000000000000000000815273ffffffffffffffffffffffffffffffffffffffff8216906394d008ef90620003f5908890889060040162000e9a565b600060405180830381600087803b1580156200041057600080fd5b505af115801562000425573d6000803e3d6000fd5b505050505b604080517f7e8c7f0800000000000000000000000000000000000000000000000000000000815290517f472eb0df000000000000000000000000000000000000000000000000000000009160009173ffffffffffffffffffffffffffffffffffffffff851691637e8c7f08916004808301926020929190829003018186803b158015620004b657600080fd5b505afa158015620004cb573d6000803e3d6000fd5b505050506040513d601f19601f82011682018060405250810190620004f1919062000c05565b60408051600480825260a0820190925291925060609190816020015b6200051762000a95565b8152602001906001900390816200050d5790505060408051606081019091529091508060008152602001847bffffffffffffffffffffffffffffffffffffffffffffffffffffffff191681526020018f73ffffffffffffffffffffffffffffffffffffffff16815250816000815181106200058e57fe5b602090810291909101015260408051606081019091528060008152602001837bffffffffffffffffffffffffffffffffffffffffffffffffffffffff191681526020018f73ffffffffffffffffffffffffffffffffffffffff1681525081600181518110620005f957fe5b6020908102919091010152604080516060810190915280600181527fffffffff0000000000000000000000000000000000000000000000000000000085166020820152306040909101528151829060029081106200065357fe5b6020908102919091010152604080516060810190915280600181527fffffffff000000000000000000000000000000000000000000000000000000008416602082015230604090910152815182906003908110620006ad57fe5b60209081029190910101526040517f1c47671b00000000000000000000000000000000000000000000000000000000815273ffffffffffffffffffffffffffffffffffffffff851690631c47671b906200070c90849060040162000ef5565b600060405180830381600087803b1580156200072757600080fd5b505af11580156200073c573d6000803e3d6000fd5b505050507ffe9b7e0ffd2aefb4b399a5f4f1ab280b9056cdbc69e80eaafa903f3301f66a5285856040516200077392919062000fc3565b60405180910390a1505050995099975050505050505050565b60015473ffffffffffffffffffffffffffffffffffffffff1681565b60005473ffffffffffffffffffffffffffffffffffffffff1681565b60025473ffffffffffffffffffffffffffffffffffffffff1681565b60008030858585604051620007f59062000ab7565b62000804949392919062000e40565b604051809103906000f08015801562000821573d6000803e3d6000fd5b506002546040519193508391889173ffffffffffffffffffffffffffffffffffffffff1690620008519062000ac5565b6200085f9392919062000f93565b604051809103906000f0801580156200087c573d6000803e3d6000fd5b50905094509492505050565b6000620008958362000964565b9050600060608273ffffffffffffffffffffffffffffffffffffffff1684604051620008c2919062000da3565b6000604051808303816000865af19150503d806000811462000901576040519150601f19603f3d011682016040523d82523d6000602084013e62000906565b606091505b5091509150816200091782620009d6565b906200095b576040517f08c379a000000000000000000000000000000000000000000000000000000000815260040162000952919062000fea565b60405180910390fd5b50505092915050565b60006060620009738362000a1d565b90506037602082016000f0915073ffffffffffffffffffffffffffffffffffffffff8216620009d0576040517f08c379a0000000000000000000000000000000000000000000000000000000008152600401620009529062000fff565b50919050565b6060604482511015620009f9575060408051602081019091526000815262000a18565b6004820191508180602001905181019062000a15919062000c4e565b90505b919050565b604080516037808252606082810190935260208201818036833750507f3d602d80600a3d3981f3363d3d373d3d3d363d7300000000000000000000000060208301525060609290921b6034830152507f5af43d82803e903d91602b57fd5bf30000000000000000000000000000000000604882015290565b6040805160608101909152806000815260006020820181905260409091015290565b611fe7806200109083390190565b61255d806200307783390190565b8035801515811462000ae457600080fd5b92915050565b60008083601f84011262000afc578182fd5b50813567ffffffffffffffff81111562000b14578182fd5b60208301915083602082850101111562000b2d57600080fd5b9250929050565b600080600080600080600080600060e08a8c03121562000b52578485fd5b893562000b5f8162001069565b985060208a013567ffffffffffffffff8082111562000b7c578687fd5b62000b8a8d838e0162000aea565b909a50985060408c013591508082111562000ba3578687fd5b5062000bb28c828d0162000aea565b90975095505060608a013560ff8116811462000bcc578485fd5b935060808a013562000bde8162001069565b925060a08a0135915062000bf68b60c08c0162000ad3565b90509295985092959850929598565b60006020828403121562000c17578081fd5b81517fffffffff000000000000000000000000000000000000000000000000000000008116811462000c47578182fd5b9392505050565b60006020828403121562000c60578081fd5b815167ffffffffffffffff8082111562000c78578283fd5b81840185601f82011262000c8a578384fd5b805192508183111562000c9b578384fd5b60405160207fffffffffffffffffffffffffffffffffffffffffffffffffffffffffffffffe0601f860116820101818110848211171562000cda578586fd5b60405283815281840160200187101562000cf2578485fd5b62000d0584602083016020850162001036565b9695505050505050565b600082845282826020860137806020848601015260207fffffffffffffffffffffffffffffffffffffffffffffffffffffffffffffffe0601f85011685010190509392505050565b6000815180845262000d7181602086016020860162001036565b601f017fffffffffffffffffffffffffffffffffffffffffffffffffffffffffffffffe0169290920160200192915050565b6000825162000db781846020870162001036565b9190910192915050565b73ffffffffffffffffffffffffffffffffffffffff91909116815260200190565b600073ffffffffffffffffffffffffffffffffffffffff881682526080602083015262000e1460808301878962000d0f565b828103604084015262000e2981868862000d0f565b91505060ff83166060830152979650505050505050565b600073ffffffffffffffffffffffffffffffffffffffff861682526080602083015262000e71608083018662000d57565b828103604084015262000e85818662000d57565b91505060ff8316606083015295945050505050565b73ffffffffffffffffffffffffffffffffffffffff9290921682526020820152606060408201819052600c908201527f696e697469616c206d696e740000000000000000000000000000000000000000608082015260a00190565b602080825282518282018190526000919060409081850190868401855b8281101562000f8657815180516003811062000f2a57fe5b8552808701517fffffffff00000000000000000000000000000000000000000000000000000000168786015285015173ffffffffffffffffffffffffffffffffffffffff16858501526060909301929085019060010162000f12565b5091979650505050505050565b73ffffffffffffffffffffffffffffffffffffffff93841681529183166020830152909116604082015260600190565b73ffffffffffffffffffffffffffffffffffffffff92831681529116602082015260400190565b60006020825262000c47602083018462000d57565b60208082526019908201527f70726f78792d666163746f72793a206261642063726561746500000000000000604082015260600190565b60005b838110156200105357818101518382015260200162001039565b8381111562001063576000848401525b50505050565b73ffffffffffffffffffffffffffffffffffffffff811681146200108c57600080fd5b5056fe60806040523480156200001157600080fd5b5060405162001fe738038062001fe7833981810160405260808110156200003757600080fd5b8151602083018051604051929492938301929190846401000000008211156200005f57600080fd5b9083019060208201858111156200007557600080fd5b82516401000000008111828201881017156200009057600080fd5b82525081516020918201929091019080838360005b83811015620000bf578181015183820152602001620000a5565b50505050905090810190601f168015620000ed5780820380516001836020036101000a031916815260200191505b50604052602001805160405193929190846401000000008211156200011157600080fd5b9083019060208201858111156200012757600080fd5b82516401000000008111828201881017156200014257600080fd5b82525081516020918201929091019080838360005b838110156200017157818101518382015260200162000157565b50505050905090810190601f1680156200019f5780820380516001836020036101000a031916815260200191505b50604052602001519150620001c29050848484846001600160e01b03620001cc16565b50505050620004be565b604051806040016040528060058152602001643a37b5b2b760d91b8152506000816040518082805190602001908083835b602083106200021e5780518252601f199092019160209182019101620001fd565b51815160209384036101000a60001901801990921691161790529201948552506040519384900301909220541591506200028c90505760405162461bcd60e51b815260040180806020018281038252602281526020018062001fc56022913960400191505060405180910390fd5b436000826040518082805190602001908083835b60208310620002c15780518252601f199092019160209182019101620002a0565b51815160209384036101000a600019018019909216911617905292019485525060405193849003019092209290925550620002fe905085620003c7565b83516200031390600190602087019062000419565b5082516200032990600290602086019062000419565b506003805460ff191660ff84161790556040518151829190819060208401908083835b602083106200036d5780518252601f1990920191602091820191016200034c565b5181516020939093036101000a60001901801990911692169190911790526040519201829003822093507f7bc2a48a4a566e237a12186f19d985b0f76afc9d5290601edac19876253670c292506000919050a25050505050565b60038054610100600160a81b0319166101006001600160a01b038416908102919091179091556040517fc87aeafc6e4ae6202adf4f08a76769119ae93cc129c0e0cbac08a118bc18e1ce90600090a250565b828054600181600116156101000203166002900490600052602060002090601f016020900481019282601f106200045c57805160ff19168380011785556200048c565b828001600101855582156200048c579182015b828111156200048c5782518255916020019190600101906200046f565b506200049a9291506200049e565b5090565b620004bb91905b808211156200049a5760008155600101620004a5565b90565b611af780620004ce6000396000f3fe608060405234801561001057600080fd5b506004361061018d5760003560e01c806370a08231116100e3578063d505accf1161008c578063e94a010211610066578063e94a0102146105fd578063ed24911d14610636578063f6d2ee861461063e5761018d565b8063d505accf146104f8578063dd62ed3e14610556578063e3ee160e146105915761018d565b8063a0cc6a68116100bd578063a0cc6a6814610411578063a9059cbb14610419578063cc1d4cab146104525761018d565b806370a08231146103a35780637ecebe00146103d657806395d89b41146104095761018d565b80632c4d4d18116101455780633408e4701161011f5780633408e4701461034557806340c10f191461034d57806342966c68146103865761018d565b80632c4d4d18146102ea57806330adf81f1461031f578063313ce567146103275761018d565b8063095ea7b311610176578063095ea7b31461024057806318160ddd1461028d57806323b872dd146102a75761018d565b806306fdde0314610192578063075461721461020f575b600080fd5b61019a61078d565b6040805160208082528351818301528351919283929083019185019080838360005b838110156101d45781810151838201526020016101bc565b50505050905090810190601f1680156102015780820380516001836020036101000a031916815260200191505b509250505060405180910390f35b610217610838565b6040805173ffffffffffffffffffffffffffffffffffffffff9092168252519081900360200190f35b6102796004803603604081101561025657600080fd5b5073ffffffffffffffffffffffffffffffffffffffff8135169060200135610859565b604080519115158252519081900360200190f35b610295610870565b60408051918252519081900360200190f35b610279600480360360608110156102bd57600080fd5b5073ffffffffffffffffffffffffffffffffffffffff813581169160208101359091169060400135610876565b61031d6004803603602081101561030057600080fd5b503573ffffffffffffffffffffffffffffffffffffffff16610926565b005b6102956109bd565b61032f6109e1565b6040805160ff9092168252519081900360200190f35b6102956109ea565b6102796004803603604081101561036357600080fd5b5073ffffffffffffffffffffffffffffffffffffffff81351690602001356109ee565b6102796004803603602081101561039c57600080fd5b5035610a86565b610295600480360360208110156103b957600080fd5b503573ffffffffffffffffffffffffffffffffffffffff16610a9a565b610295600480360360208110156103ec57600080fd5b503573ffffffffffffffffffffffffffffffffffffffff16610aac565b61019a610abe565b610295610b34565b6102796004803603604081101561042f57600080fd5b5073ffffffffffffffffffffffffffffffffffffffff8135169060200135610b58565b6102956004803603602081101561046857600080fd5b81019060208101813564010000000081111561048357600080fd5b82018360208201111561049557600080fd5b803590602001918460018302840111640100000000831117156104b757600080fd5b91908080601f016020809104026020016040519081016040528093929190818152602001838380828437600092019190915250929550610b65945050505050565b61031d600480360360e081101561050e57600080fd5b5073ffffffffffffffffffffffffffffffffffffffff813581169160208101359091169060408101359060608101359060ff6080820135169060a08101359060c00135610b82565b6102956004803603604081101561056c57600080fd5b5073ffffffffffffffffffffffffffffffffffffffff81358116916020013516610ca9565b61031d60048036036101208110156105a857600080fd5b5073ffffffffffffffffffffffffffffffffffffffff813581169160208101359091169060408101359060608101359060808101359060a08101359060ff60c0820135169060e0810135906101000135610cc6565b6102796004803603604081101561061357600080fd5b5073ffffffffffffffffffffffffffffffffffffffff8135169060200135610f6d565b610295610f8d565b61031d6004803603608081101561065457600080fd5b73ffffffffffffffffffffffffffffffffffffffff823516919081019060408101602082013564010000000081111561068c57600080fd5b82018360208201111561069e57600080fd5b803590602001918460018302840111640100000000831117156106c057600080fd5b91908080601f016020809104026020016040519081016040528093929190818152602001838380828437600092019190915250929594936020810193503591505064010000000081111561071357600080fd5b82018360208201111561072557600080fd5b8035906020019184600183028401116401000000008311171561074757600080fd5b91908080601f0160208091040260200160405190810160405280939291908181526020018383808284376000920191909152509295505050903560ff1691506110a19050565b60018054604080516020600284861615610100027fffffffffffffffffffffffffffffffffffffffffffffffffffffffffffffffff0190941693909304601f810184900484028201840190925281815292918301828280156108305780601f1061080557610100808354040283529160200191610830565b820191906000526020600020905b81548152906001019060200180831161081357829003601f168201915b505050505081565b600354610100900473ffffffffffffffffffffffffffffffffffffffff1681565b6000610866338484611392565b5060015b92915050565b60045481565b73ffffffffffffffffffffffffffffffffffffffff831660009081526006602090815260408083203384529091528120547fffffffffffffffffffffffffffffffffffffffffffffffffffffffffffffffff8114610910576108de818463ffffffff61140116565b73ffffffffffffffffffffffffffffffffffffffff861660009081526006602090815260408083203384529091529020555b61091b858585611473565b506001949350505050565b600354610100900473ffffffffffffffffffffffffffffffffffffffff1633146109b157604080517f08c379a000000000000000000000000000000000000000000000000000000000815260206004820152601160248201527f746f6b656e3a206e6f74206d696e746572000000000000000000000000000000604482015290519081900360640190fd5b6109ba816115fa565b50565b7f6e71edae12b1b97f4d1f60370fef10105fa2faae0126114a169c64845d6126c981565b60035460ff1681565b4690565b600354600090610100900473ffffffffffffffffffffffffffffffffffffffff163314610a7c57604080517f08c379a000000000000000000000000000000000000000000000000000000000815260206004820152601160248201527f746f6b656e3a206e6f74206d696e746572000000000000000000000000000000604482015290519081900360640190fd5b6108668383611670565b6000610a923383611721565b506001919050565b60056020526000908152604090205481565b60076020526000908152604090205481565b600280546040805160206001841615610100027fffffffffffffffffffffffffffffffffffffffffffffffffffffffffffffffff01909316849004601f810184900484028201840190925281815292918301828280156108305780601f1061080557610100808354040283529160200191610830565b7f7c7c6cdb67a18743f49ec6fa9b35f50d52ed05cbed4cc592e13b44501c1a226781565b6000610866338484611473565b805160208183018101805160008252928201919093012091525481565b42841015610bf157604080517f08c379a000000000000000000000000000000000000000000000000000000000815260206004820152601360248201527f746f6b656e3a2061757468206578706972656400000000000000000000000000604482015290519081900360640190fd5b73ffffffffffffffffffffffffffffffffffffffff80881660008181526007602090815260409182902080546001810190915582517f6e71edae12b1b97f4d1f60370fef10105fa2faae0126114a169c64845d6126c98184015280840194909452938a1660608401526080830189905260a083019390935260c08083018890528151808403909101815260e090920190528051910120610c9488828686866117e5565b610c9f888888611392565b5050505050505050565b600660209081526000928352604080842090915290825290205481565b854211610d3457604080517f08c379a000000000000000000000000000000000000000000000000000000000815260206004820152601060248201527f746f6b656e3a2061757468207761697400000000000000000000000000000000604482015290519081900360640190fd5b844210610da257604080517f08c379a000000000000000000000000000000000000000000000000000000000815260206004820152601360248201527f746f6b656e3a2061757468206578706972656400000000000000000000000000604482015290519081900360640190fd5b73ffffffffffffffffffffffffffffffffffffffff8916600090815260086020908152604080832087845290915290205460ff1615610e4257604080517f08c379a000000000000000000000000000000000000000000000000000000000815260206004820152601060248201527f746f6b656e3a2061757468207573656400000000000000000000000000000000604482015290519081900360640190fd5b604080517f7c7c6cdb67a18743f49ec6fa9b35f50d52ed05cbed4cc592e13b44501c1a226760208083019190915273ffffffffffffffffffffffffffffffffffffffff808d16838501528b166060830152608082018a905260a0820189905260c0820188905260e0808301889052835180840390910181526101009092019092528051910120610ed58a828686866117e5565b73ffffffffffffffffffffffffffffffffffffffff8a16600081815260086020908152604080832089845290915280822080547fffffffffffffffffffffffffffffffffffffffffffffffffffffffffffffff00166001179055518792917f98de503528ee59b575ef0c0a2576a82497bfc029a5685b209e9ec333479b10a591a3610f618a8a8a611473565b50505050505050505050565b600860209081526000928352604080842090915290825290205460ff1681565b60007f8b73c3c69bb8fe3d512ecc4cf759cc79239f7b179b0ffacaa9a75d522b39400f60001b600160405160200180828054600181600116156101000203166002900480156110135780601f10610ff1576101008083540402835291820191611013565b820191906000526020600020905b815481529060010190602001808311610fff575b5050915050604051602081830303815290604052805190602001207fc89efdaa54c0f20c7adf612882df0950f5a951637e0307cdcb4c672f298b8bc660001b61105a6109ea565b6040805160208082019690965280820194909452606084019290925260808301523060a0808401919091528151808403909101815260c09092019052805191012090505b90565b6040518060400160405280600581526020017f746f6b656e0000000000000000000000000000000000000000000000000000008152506000816040518082805190602001908083835b6020831061112757805182527fffffffffffffffffffffffffffffffffffffffffffffffffffffffffffffffe090920191602091820191016110ea565b51815160209384036101000a7fffffffffffffffffffffffffffffffffffffffffffffffffffffffffffffffff01801990921691161790529201948552506040519384900301909220541591506111cb9050576040517f08c379a0000000000000000000000000000000000000000000000000000000008152600401808060200182810382526022815260200180611aa06022913960400191505060405180910390fd5b436000826040518082805190602001908083835b6020831061121c57805182527fffffffffffffffffffffffffffffffffffffffffffffffffffffffffffffffe090920191602091820191016111df565b51815160209384036101000a7fffffffffffffffffffffffffffffffffffffffffffffffffffffffffffffffff0180199092169116179052920194855250604051938490030190922092909255506112759050856115fa565b8351611288906001906020870190611a07565b50825161129c906002906020860190611a07565b50600380547fffffffffffffffffffffffffffffffffffffffffffffffffffffffffffffff001660ff84161790556040518151829190819060208401908083835b6020831061131a57805182527fffffffffffffffffffffffffffffffffffffffffffffffffffffffffffffffe090920191602091820191016112dd565b5181516020939093036101000a7fffffffffffffffffffffffffffffffffffffffffffffffffffffffffffffffff01801990911692169190911790526040519201829003822093507f7bc2a48a4a566e237a12186f19d985b0f76afc9d5290601edac19876253670c292506000919050a25050505050565b73ffffffffffffffffffffffffffffffffffffffff808416600081815260066020908152604080832094871680845294825291829020859055815185815291517f8c5be1e5ebec7d5bd14f71427d1e84f3dd0314c0f7b2291e5b200ac8c7c3b9259281900390910190a3505050565b8082038281111561086a57604080517f08c379a000000000000000000000000000000000000000000000000000000000815260206004820152600f60248201527f6d6174683a20756e646572666c6f770000000000000000000000000000000000604482015290519081900360640190fd5b73ffffffffffffffffffffffffffffffffffffffff821630148015906114ae575073ffffffffffffffffffffffffffffffffffffffff821615155b61151957604080517f08c379a000000000000000000000000000000000000000000000000000000000815260206004820152600d60248201527f746f6b656e3a2062616420746f00000000000000000000000000000000000000604482015290519081900360640190fd5b73ffffffffffffffffffffffffffffffffffffffff831660009081526005602052604090205461154f908263ffffffff61140116565b73ffffffffffffffffffffffffffffffffffffffff8085166000908152600560205260408082209390935590841681522054611591908263ffffffff61199516565b73ffffffffffffffffffffffffffffffffffffffff80841660008181526005602090815260409182902094909455805185815290519193928716927fddf252ad1be2c89b69c2b068fc378daa952ba7f163c4a11628f55a4df523b3ef92918290030190a3505050565b600380547fffffffffffffffffffffff0000000000000000000000000000000000000000ff1661010073ffffffffffffffffffffffffffffffffffffffff8416908102919091179091556040517fc87aeafc6e4ae6202adf4f08a76769119ae93cc129c0e0cbac08a118bc18e1ce90600090a250565b600454611683908263ffffffff61199516565b60045573ffffffffffffffffffffffffffffffffffffffff82166000908152600560205260409020546116bc908263ffffffff61199516565b73ffffffffffffffffffffffffffffffffffffffff831660008181526005602090815260408083209490945583518581529351929391927fddf252ad1be2c89b69c2b068fc378daa952ba7f163c4a11628f55a4df523b3ef9281900390910190a35050565b73ffffffffffffffffffffffffffffffffffffffff8216600090815260056020526040902054611757908263ffffffff61140116565b73ffffffffffffffffffffffffffffffffffffffff8316600090815260056020526040902055600454611790908263ffffffff61140116565b60045560408051828152905160009173ffffffffffffffffffffffffffffffffffffffff8516917fddf252ad1be2c89b69c2b068fc378daa952ba7f163c4a11628f55a4df523b3ef9181900360200190a35050565b60006117ef610f8d565b8560405160200180807f190100000000000000000000000000000000000000000000000000000000000081525060020183815260200182815260200192505050604051602081830303815290604052805190602001209050600060018286868660405160008152602001604052604051808581526020018460ff1660ff1681526020018381526020018281526020019450505050506020604051602081039080840390855afa1580156118a6573d6000803e3d6000fd5b50506040517fffffffffffffffffffffffffffffffffffffffffffffffffffffffffffffffe0015191505073ffffffffffffffffffffffffffffffffffffffff81161580159061192157508673ffffffffffffffffffffffffffffffffffffffff168173ffffffffffffffffffffffffffffffffffffffff16145b61198c57604080517f08c379a000000000000000000000000000000000000000000000000000000000815260206004820152600e60248201527f746f6b656e3a2062616420736967000000000000000000000000000000000000604482015290519081900360640190fd5b50505050505050565b8082018281101561086a57604080517f08c379a000000000000000000000000000000000000000000000000000000000815260206004820152600e60248201527f6d6174683a206f766572666c6f77000000000000000000000000000000000000604482015290519081900360640190fd5b828054600181600116156101000203166002900490600052602060002090601f016020900481019282601f10611a4857805160ff1916838001178555611a75565b82800160010185558215611a75579182015b82811115611a75578251825591602001919060010190611a5a565b50611a81929150611a85565b5090565b61109e91905b80821115611a815760008155600101611a8b56fe696e697469616c697a61626c653a20616c726561647920696e697469616c697a6564a2646970667358221220a628a023ed22777936a6ee8e469cc60999c4bf34c0db535dc039209268bbbd5064736f6c63430006080033696e697469616c697a61626c653a20616c726561647920696e697469616c697a656460806040523480156200001157600080fd5b506040516200255d3803806200255d8339810160408190526200003491620003e9565b81806000604051620000469062000478565b90815260200160405180910390205460001415620000725762000072816001600160e01b036200009416565b506200008b90508383836001600160e01b036200016e16565b50505062000544565b604051806040016040528060038152602001621858db60ea1b815250600081604051620000c291906200043c565b908152602001604051809103902054600014620000fc5760405162461bcd60e51b8152600401620000f390620004c0565b60405180910390fd5b436000826040516200010f91906200043c565b908152604051908190036020019020556200013b63161b7d8160e21b836001600160e01b03620002b216565b806040516200014b91906200043c565b604051908190038120906000805160206200253d83398151915290600090a25050565b8160006040516200017f9062000478565b90815260200160405180910390205460001415620001ab57620001ab816001600160e01b036200009416565b6040518060400160405280600681526020016536b4b73a32b960d11b815250600081604051620001dc91906200043c565b9081526020016040518091039020546000146200020d5760405162461bcd60e51b8152600401620000f390620004c0565b436000826040516200022091906200043c565b90815260405190819003602001902055600280546001600160a01b038088166001600160a01b03199283161790925560038054928616929091169190911790556200027c63472eb0df60e01b856001600160e01b03620002b216565b806040516200028c91906200043c565b604051908190038120906000805160206200253d83398151915290600090a25050505050565b620002c9828260026001600160e01b03620002cd16565b5050565b620002e1836001600160e01b03620003b716565b15620003015760405162461bcd60e51b8152600401620000f3906200049b565b6001600160a01b038216600114156200032e5760405162461bcd60e51b8152600401620000f39062000502565b6001600160e01b0319831660008181526001602090815260408083206001600160a01b03878116808652919093529281902080546001600160a01b0319169286169290921790915551909133917fc62063b81f7036fd97a0dc546516e99f11004d2d76ca0fddd3866346c86e709190620003aa90869062000487565b60405180910390a4505050565b6001600160e01b0319166000908152600160208181526040808420838552909152909120546001600160a01b03161490565b600080600060608486031215620003fe578283fd5b83516200040b816200052b565b60208501519093506200041e816200052b565b604085015190925062000431816200052b565b809150509250925092565b60008251815b818110156200045e576020818601810151858301520162000442565b818111156200046d5782828501525b509190910192915050565b621858db60ea1b815260030190565b6001600160a01b0391909116815260200190565b6020808252600b908201526a30b1b61d10333937bd32b760a91b604082015260600190565b60208082526022908201527f696e697469616c697a61626c653a20616c726561647920696e697469616c697a604082015261195960f21b606082015260800190565b6020808252600f908201526e61636c3a2062616420667265657a6560881b604082015260600190565b6001600160a01b03811681146200054157600080fd5b50565b611fe980620005546000396000f3fe608060405234801561001057600080fd5b50600436106101005760003560e01c8063a157a10d11610097578063cc1d4cab11610066578063cc1d4cab14610210578063d3feb83014610230578063ec8528f914610243578063fc0c546a1461024b57610100565b8063a157a10d146101c4578063a2157227146101d7578063bdf9a726146101ea578063c0c53b8b146101fd57610100565b80637e8c7f08116100d35780637e8c7f0814610169578063901d13e21461017e57806394d008ef1461019157806396fc8abd146101a457610100565b8063097c8108146101055780631c47671b1461012e578063495a9825146101435780635884973414610156575b600080fd5b6101186101133660046119fc565b610253565b6040516101259190611c94565b60405180910390f35b61014161013c366004611858565b6104d5565b005b6101186101513660046119a8565b61062f565b6101416101643660046119c4565b61068a565b61017161072d565b6040516101259190611c9f565b61014161018c3660046117e2565b610751565b61014161019f3660046117fe565b61085d565b6101b76101b23660046119c4565b6109fa565b6040516101259190611c4d565b6101416101d23660046119c4565b610a2d565b6101416101e5366004611a5c565b610ad0565b6101416101f83660046119a8565b610b7a565b61014161020b366004611aa6565b610c20565b61022361021e366004611ac5565b610dc2565b6040516101259190611e6f565b6101b761023e366004611928565b610ddf565b6101b7611071565b6101b761108d565b7fffffffff000000000000000000000000000000000000000000000000000000008316600090815260016020908152604080832033845290915281205473ffffffffffffffffffffffffffffffffffffffff16801561038c5773ffffffffffffffffffffffffffffffffffffffff8116600214156102d55760019150506104ce565b6040517f097c810800000000000000000000000000000000000000000000000000000000815273ffffffffffffffffffffffffffffffffffffffff82169063097c81089061032b90889088908890600401611ccc565b602060405180830381600087803b15801561034557600080fd5b505af1158015610359573d6000803e3d6000fd5b505050506040513d601f19601f8201168201806040525081019061037d9190611908565b1561038c5760019150506104ce565b7fffffffff000000000000000000000000000000000000000000000000000000008516600090815260016020908152604080832073ffffffffffffffffffffffffffffffffffffffff8085529252909120541680156104c75773ffffffffffffffffffffffffffffffffffffffff81166002141561040f576001925050506104ce565b6040517f097c810800000000000000000000000000000000000000000000000000000000815273ffffffffffffffffffffffffffffffffffffffff82169063097c81089061046590899089908990600401611ccc565b602060405180830381600087803b15801561047f57600080fd5b505af1158015610493573d6000803e3d6000fd5b505050506040513d601f19601f820116820180604052508101906104b79190611908565b156104c7576001925050506104ce565b6000925050505b9392505050565b60408051602036601f81018290048202830182019093528282527f586df604000000000000000000000000000000000000000000000000000000009261053892849233926000918190840183828082843760009201919091525061025392505050565b610577576040517f08c379a000000000000000000000000000000000000000000000000000000000815260040161056e90611d36565b60405180910390fd5b60005b825181101561062a5761058b6116cc565b83828151811061059757fe5b60200260200101519050600060028111156105ae57fe5b815160028111156105bb57fe5b14156105d8576105d3816020015182604001516110a9565b610621565b6001815160028111156105e757fe5b14156105ff576105d3816020015182604001516110b5565b60028151600281111561060e57fe5b141561062157610621816020015161119d565b5060010161057a565b505050565b7fffffffff00000000000000000000000000000000000000000000000000000000811660009081526001602081815260408084208385529091529091205473ffffffffffffffffffffffffffffffffffffffff16145b919050565b60408051602036601f81018290048202830182019093528282527f586df60400000000000000000000000000000000000000000000000000000000926106ed92849233926000918190840183828082843760009201919091525061025392505050565b610723576040517f08c379a000000000000000000000000000000000000000000000000000000000815260040161056e90611d36565b61062a83836110b5565b7f586df6040000000000000000000000000000000000000000000000000000000081565b63901d13e260e01b61079b81336000368080601f01602080910402602001604051908101604052809392919081815260200183838082843760009201919091525061025392505050565b6107d1576040517f08c379a000000000000000000000000000000000000000000000000000000000815260040161056e90611d36565b6002546040517f2c4d4d1800000000000000000000000000000000000000000000000000000000815273ffffffffffffffffffffffffffffffffffffffff90911690632c4d4d1890610827908590600401611c4d565b600060405180830381600087803b15801561084157600080fd5b505af1158015610855573d6000803e3d6000fd5b505050505050565b60408051602036601f81018290048202830182019093528282527f472eb0df00000000000000000000000000000000000000000000000000000000926108c092849233926000918190840183828082843760009201919091525061025392505050565b6108f6576040517f08c379a000000000000000000000000000000000000000000000000000000000815260040161056e90611d36565b6002546040517f40c10f1900000000000000000000000000000000000000000000000000000000815273ffffffffffffffffffffffffffffffffffffffff909116906340c10f199061094e9088908890600401611c6e565b602060405180830381600087803b15801561096857600080fd5b505af115801561097c573d6000803e3d6000fd5b505050506040513d601f19601f820116820180604052508101906109a09190611908565b508473ffffffffffffffffffffffffffffffffffffffff167ff8e46b9f2ac39b0277e905f82e86502779203bea0700bf987d3707e11636a39d8585856040516109eb93929190611e78565b60405180910390a25050505050565b600160209081526000928352604080842090915290825290205473ffffffffffffffffffffffffffffffffffffffff1681565b60408051602036601f81018290048202830182019093528282527f586df6040000000000000000000000000000000000000000000000000000000092610a9092849233926000918190840183828082843760009201919091525061025392505050565b610ac6576040517f08c379a000000000000000000000000000000000000000000000000000000000815260040161056e90611d36565b61062a83836110a9565b60408051602036601f81018290048202830182019093528282527f586df6040000000000000000000000000000000000000000000000000000000092610b3392849233926000918190840183828082843760009201919091525061025392505050565b610b69576040517f08c379a000000000000000000000000000000000000000000000000000000000815260040161056e90611d36565b610b7484848461126e565b50505050565b60408051602036601f81018290048202830182019093528282527f586df6040000000000000000000000000000000000000000000000000000000092610bdd92849233926000918190840183828082843760009201919091525061025392505050565b610c13576040517f08c379a000000000000000000000000000000000000000000000000000000000815260040161056e90611d36565b610c1c8261119d565b5050565b816000604051610c2f90611c24565b90815260200160405180910390205460001415610c4f57610c4f816113c3565b6040518060400160405280600681526020017f6d696e7465720000000000000000000000000000000000000000000000000000815250600081604051610c959190611c08565b908152602001604051809103902054600014610cdd576040517f08c379a000000000000000000000000000000000000000000000000000000000815260040161056e90611da4565b43600082604051610cee9190611c08565b908152604051908190036020019020556002805473ffffffffffffffffffffffffffffffffffffffff8088167fffffffffffffffffffffffff0000000000000000000000000000000000000000928316179092556003805492861692909116919091179055610d7d7f472eb0df00000000000000000000000000000000000000000000000000000000856110a9565b80604051610d8b9190611c08565b604051908190038120907f7bc2a48a4a566e237a12186f19d985b0f76afc9d5290601edac19876253670c290600090a25050505050565b805160208183018101805160008252928201919093012091525481565b600063d3feb83060e01b6394d008ef60e01b18610e3481336000368080601f01602080910402602001604051908101604052809392919081815260200183838082843760009201919091525061025392505050565b610e6a576040517f08c379a000000000000000000000000000000000000000000000000000000000815260040161056e90611d36565b600254604051600091610f62917fbe13f47c0000000000000000000000000000000000000000000000000000000091610ec09173ffffffffffffffffffffffffffffffffffffffff909116908d90602401611c6e565b604080517fffffffffffffffffffffffffffffffffffffffffffffffffffffffffffffffe08184030181529190526020810180517bffffffffffffffffffffffffffffffffffffffffffffffffffffffff167fffffffff000000000000000000000000000000000000000000000000000000009093169290921790915260035473ffffffffffffffffffffffffffffffffffffffff169063ffffffff6114de16565b6002546040517f40c10f1900000000000000000000000000000000000000000000000000000000815291925073ffffffffffffffffffffffffffffffffffffffff16906340c10f1990610fbb9084908c90600401611c6e565b602060405180830381600087803b158015610fd557600080fd5b505af1158015610fe9573d6000803e3d6000fd5b505050506040513d601f19601f8201168201806040525081019061100d9190611908565b50888173ffffffffffffffffffffffffffffffffffffffff167ff5eb12d9e3fbc57fd00a7246b6bb142b1c5f6e7cdd9f9f17efd5c2163440e0f48a8a8a8a8a60405161105d959493929190611e92565b60405180910390a398975050505050505050565b60035473ffffffffffffffffffffffffffffffffffffffff1681565b60025473ffffffffffffffffffffffffffffffffffffffff1681565b610c1c8282600261126e565b6110be8261062f565b156110f5576040517f08c379a000000000000000000000000000000000000000000000000000000000815260040161056e90611d6d565b7fffffffff000000000000000000000000000000000000000000000000000000008216600081815260016020908152604080832073ffffffffffffffffffffffffffffffffffffffff8616808552925280832080547fffffffffffffffffffffffff0000000000000000000000000000000000000000169055519092339290917f682f2c466c1e9f6883eb72cbced01373e1cb18b05ae5c8bc04dc73d73e29f8cd9190a45050565b6111a68161062f565b156111dd576040517f08c379a000000000000000000000000000000000000000000000000000000000815260040161056e90611d6d565b7fffffffff000000000000000000000000000000000000000000000000000000008116600081815260016020818152604080842083855290915280832080547fffffffffffffffffffffffff000000000000000000000000000000000000000016909217909155513392917f049c6b8b07a879425742523fa80f8ffb25e39ad518c93a5896a0df19518397e591a350565b6112778361062f565b156112ae576040517f08c379a000000000000000000000000000000000000000000000000000000000815260040161056e90611d6d565b73ffffffffffffffffffffffffffffffffffffffff8216600114156112ff576040517f08c379a000000000000000000000000000000000000000000000000000000000815260040161056e90611e01565b7fffffffff000000000000000000000000000000000000000000000000000000008316600081815260016020908152604080832073ffffffffffffffffffffffffffffffffffffffff878116808652919093529281902080547fffffffffffffffffffffffff0000000000000000000000000000000000000000169286169290921790915551909133917fc62063b81f7036fd97a0dc546516e99f11004d2d76ca0fddd3866346c86e7091906113b6908690611c4d565b60405180910390a4505050565b6040518060400160405280600381526020017f61636c00000000000000000000000000000000000000000000000000000000008152506000816040516114099190611c08565b908152602001604051809103902054600014611451576040517f08c379a000000000000000000000000000000000000000000000000000000000815260040161056e90611da4565b436000826040516114629190611c08565b9081526040519081900360200190205561149c7f586df60400000000000000000000000000000000000000000000000000000000836110a9565b806040516114aa9190611c08565b604051908190038120907f7bc2a48a4a566e237a12186f19d985b0f76afc9d5290601edac19876253670c290600090a25050565b60006114e9836115a6565b9050600060608273ffffffffffffffffffffffffffffffffffffffff16846040516115149190611c08565b6000604051808303816000865af19150503d8060008114611551576040519150601f19603f3d011682016040523d82523d6000602084013e611556565b606091505b50915091508161156582611613565b9061159d576040517f08c379a000000000000000000000000000000000000000000000000000000000815260040161056e9190611d23565b50505092915050565b600060606115b383611654565b90506037602082016000f0915073ffffffffffffffffffffffffffffffffffffffff821661160d576040517f08c379a000000000000000000000000000000000000000000000000000000000815260040161056e90611e38565b50919050565b60606044825110156116345750604080516020810190915260008152610685565b6004820191508180602001905181019061164e9190611b00565b92915050565b604080516037808252606082810190935260208201818036833750507f3d602d80600a3d3981f3363d3d373d3d3d363d7300000000000000000000000060208301525060609290921b6034830152507f5af43d82803e903d91602b57fd5bf30000000000000000000000000000000000604882015290565b6040805160608101909152806000815260006020820181905260409091015290565b60008083601f8401126116ff578182fd5b50813567ffffffffffffffff811115611716578182fd5b60208301915083602082850101111561172e57600080fd5b9250929050565b600082601f830112611745578081fd5b813561175861175382611ef2565b611ecb565b915080825283602082850101111561176f57600080fd5b8060208401602084013760009082016020015292915050565b600060608284031215611799578081fd5b6117a36060611ecb565b90508135600381106117b457600080fd5b815260208201356117c481611f85565b602082015260408201356117d781611f60565b604082015292915050565b6000602082840312156117f3578081fd5b81356104ce81611f60565b60008060008060608587031215611813578283fd5b843561181e81611f60565b935060208501359250604085013567ffffffffffffffff811115611840578283fd5b61184c878288016116ee565b95989497509550505050565b6000602080838503121561186a578182fd5b823567ffffffffffffffff80821115611881578384fd5b81850186601f820112611892578485fd5b80359250818311156118a2578485fd5b6118af8485850201611ecb565b83815284810192508185016060808602840187018a10156118ce578788fd5b8793505b858410156118fa576118e48a83611788565b85529386019360019390930192908101906118d2565b509098975050505050505050565b600060208284031215611919578081fd5b815180151581146104ce578182fd5b60008060008060008060808789031215611940578182fd5b8635955060208701359450604087013567ffffffffffffffff80821115611965578384fd5b6119718a838b016116ee565b90965094506060890135915080821115611989578384fd5b5061199689828a016116ee565b979a9699509497509295939492505050565b6000602082840312156119b9578081fd5b81356104ce81611f85565b600080604083850312156119d6578182fd5b82356119e181611f85565b915060208301356119f181611f60565b809150509250929050565b600080600060608486031215611a10578283fd5b8335611a1b81611f85565b92506020840135611a2b81611f60565b9150604084013567ffffffffffffffff811115611a46578182fd5b611a5286828701611735565b9150509250925092565b600080600060608486031215611a70578081fd5b8335611a7b81611f85565b92506020840135611a8b81611f60565b91506040840135611a9b81611f60565b809150509250925092565b600080600060608486031215611aba578081fd5b8335611a7b81611f60565b600060208284031215611ad6578081fd5b813567ffffffffffffffff811115611aec578182fd5b611af884828501611735565b949350505050565b600060208284031215611b11578081fd5b815167ffffffffffffffff811115611b27578182fd5b80830184601f820112611b38578283fd5b80519150611b4861175383611ef2565b828152856020848401011115611b5c578384fd5b611b6d836020830160208501611f34565b95945050505050565b600082845282826020860137806020848601015260207fffffffffffffffffffffffffffffffffffffffffffffffffffffffffffffffe0601f85011685010190509392505050565b60008151808452611bd6816020860160208601611f34565b601f017fffffffffffffffffffffffffffffffffffffffffffffffffffffffffffffffe0169290920160200192915050565b60008251611c1a818460208701611f34565b9190910192915050565b7f61636c0000000000000000000000000000000000000000000000000000000000815260030190565b73ffffffffffffffffffffffffffffffffffffffff91909116815260200190565b73ffffffffffffffffffffffffffffffffffffffff929092168252602082015260400190565b901515815260200190565b7fffffffff0000000000000000000000000000000000000000000000000000000091909116815260200190565b60007fffffffff000000000000000000000000000000000000000000000000000000008516825273ffffffffffffffffffffffffffffffffffffffff8416602083015260606040830152611b6d6060830184611bbe565b6000602082526104ce6020830184611bbe565b60208082526009908201527f61636c3a20617574680000000000000000000000000000000000000000000000604082015260600190565b6020808252600b908201527f61636c3a2066726f7a656e000000000000000000000000000000000000000000604082015260600190565b60208082526022908201527f696e697469616c697a61626c653a20616c726561647920696e697469616c697a60408201527f6564000000000000000000000000000000000000000000000000000000000000606082015260800190565b6020808252600f908201527f61636c3a2062616420667265657a650000000000000000000000000000000000604082015260600190565b60208082526019908201527f70726f78792d666163746f72793a206261642063726561746500000000000000604082015260600190565b90815260200190565b600084825260406020830152611b6d604083018486611b76565b600086825260606020830152611eac606083018688611b76565b8281036040840152611ebf818587611b76565b98975050505050505050565b60405181810167ffffffffffffffff81118282101715611eea57600080fd5b604052919050565b600067ffffffffffffffff821115611f08578081fd5b50601f017fffffffffffffffffffffffffffffffffffffffffffffffffffffffffffffffe01660200190565b60005b83811015611f4f578181015183820152602001611f37565b83811115610b745750506000910152565b73ffffffffffffffffffffffffffffffffffffffff81168114611f8257600080fd5b50565b7fffffffff0000000000000000000000000000000000000000000000000000000081168114611f8257600080fdfea2646970667358221220aaa9e1ee548dcc3a30c2b75a55edeb5e24b7bc95d65884e26eb721e31492819864736f6c634300060800337bc2a48a4a566e237a12186f19d985b0f76afc9d5290601edac19876253670c2a2646970667358221220afda3da525f74a182775eb5b41b8878d654307934e385860b544096b5547d53664736f6c63430006080033608060405234801561001057600080fd5b50604051610d5c380380610d5c8339818101604052604081101561003357600080fd5b50805160209091015161004f82826001600160e01b0361005616565b5050610221565b6040518060400160405280600b81526020016a3234b9ba3934b13aba37b960a91b8152506000816040518082805190602001908083835b602083106100ac5780518252601f19909201916020918201910161008d565b51815160209384036101000a600019018019909216911617905292019485525060405193849003019092205415915061011890505760405162461bcd60e51b8152600401808060200182810382526022815260200180610d3a6022913960400191505060405180910390fd5b436000826040518082805190602001908083835b6020831061014b5780518252601f19909201916020918201910161012c565b51815160209384036101000a60001901801990921691161790529201948552506040519384900381018420949094555050600180546001600160a01b0319166001600160a01b0387161790556002849055825183928291908401908083835b602083106101c95780518252601f1990920191602091820191016101aa565b5181516020939093036101000a60001901801990911692169190911790526040519201829003822093507f7bc2a48a4a566e237a12186f19d985b0f76afc9d5290601edac19876253670c292506000919050a2505050565b610b0a806102306000396000f3fe608060405234801561001057600080fd5b506004361061007d5760003560e01c80639e34070f1161005b5780639e34070f14610203578063be13f47c14610234578063cc1d4cab1461026d578063fc0c546a146103135761007d565b80632e7ba6ef146100825780632eb4a7ab1461011d57806358beca3414610137575b600080fd5b61011b6004803603608081101561009857600080fd5b81359173ffffffffffffffffffffffffffffffffffffffff60208201351691604082013591908101906080810160608201356401000000008111156100dc57600080fd5b8201836020820111156100ee57600080fd5b8035906020019184602083028401116401000000008311171561011057600080fd5b509092509050610344565b005b6101256104eb565b60408051918252519081900360200190f35b6101256004803603608081101561014d57600080fd5b81359173ffffffffffffffffffffffffffffffffffffffff602082013516916040820135919081019060808101606082013564010000000081111561019157600080fd5b8201836020820111156101a357600080fd5b803590602001918460208302840111640100000000831117156101c557600080fd5b9190808060200260200160405190810160405280939291908181526020018383602002808284376000920191909152509295506104f1945050505050565b6102206004803603602081101561021957600080fd5b503561052d565b604080519115158252519081900360200190f35b61011b6004803603604081101561024a57600080fd5b5073ffffffffffffffffffffffffffffffffffffffff8135169060200135610553565b6101256004803603602081101561028357600080fd5b81019060208101813564010000000081111561029e57600080fd5b8201836020820111156102b057600080fd5b803590602001918460018302840111640100000000831117156102d257600080fd5b91908080601f016020809104026020016040519081016040528093929190818152602001838380828437600092019190915250929550610823945050505050565b61031b610840565b6040805173ffffffffffffffffffffffffffffffffffffffff9092168252519081900360200190f35b61034d8561052d565b156103b957604080517f08c379a000000000000000000000000000000000000000000000000000000000815260206004820152601560248201527f646973743a20616c726561647920636c61696d65640000000000000000000000604482015290519081900360640190fd5b6103f885858585858080602002602001604051908101604052809392919081815260200183836020028082843760009201919091525061085c92505050565b61046357604080517f08c379a000000000000000000000000000000000000000000000000000000000815260206004820152601260248201527f646973743a2070726f6f66206661696c65640000000000000000000000000000604482015290519081900360640190fd5b61046c856108d0565b6001546104969073ffffffffffffffffffffffffffffffffffffffff16858563ffffffff6108f716565b5060408051848152905173ffffffffffffffffffffffffffffffffffffffff86169187917f4ec90e965519d92681267467f775ada5bd214aa92c0dc93d90a5e880ce9ed0269181900360200190a35050505050565b60025481565b60006104fc8561052d565b1561050957506000610525565b6105158585858561085c565b610520576000610522565b825b90505b949350505050565b6101008104600090815260036020526040902054600160ff9092169190911b9081161490565b6040518060400160405280600b81526020017f6469737472696275746f720000000000000000000000000000000000000000008152506000816040518082805190602001908083835b602083106105d957805182527fffffffffffffffffffffffffffffffffffffffffffffffffffffffffffffffe0909201916020918201910161059c565b51815160209384036101000a7fffffffffffffffffffffffffffffffffffffffffffffffffffffffffffffffff018019909216911617905292019485525060405193849003019092205415915061067d9050576040517f08c379a0000000000000000000000000000000000000000000000000000000008152600401808060200182810382526022815260200180610ab36022913960400191505060405180910390fd5b436000826040518082805190602001908083835b602083106106ce57805182527fffffffffffffffffffffffffffffffffffffffffffffffffffffffffffffffe09092019160209182019101610691565b51815160209384036101000a7fffffffffffffffffffffffffffffffffffffffffffffffffffffffffffffffff01801990921691161790529201948552506040519384900381018420949094555050600180547fffffffffffffffffffffffff00000000000000000000000000000000000000001673ffffffffffffffffffffffffffffffffffffffff87161790556002849055825183928291908401908083835b602083106107ad57805182527fffffffffffffffffffffffffffffffffffffffffffffffffffffffffffffffe09092019160209182019101610770565b5181516020939093036101000a7fffffffffffffffffffffffffffffffffffffffffffffffffffffffffffffffff01801990911692169190911790526040519201829003822093507f7bc2a48a4a566e237a12186f19d985b0f76afc9d5290601edac19876253670c292506000919050a2505050565b805160208183018101805160008252928201919093012091525481565b60015473ffffffffffffffffffffffffffffffffffffffff1681565b6040805160208082018790527fffffffffffffffffffffffffffffffffffffffff000000000000000000000000606087901b168284015260548083018690528351808403909101815260749092019092528051910120600254600091906108c59084908361098f565b159695505050505050565b610100810460009081526003602052604090208054600160ff9093169290921b9091179055565b6040805173ffffffffffffffffffffffffffffffffffffffff8416602482015260448082018490528251808303909101815260649091019091526020810180517bffffffffffffffffffffffffffffffffffffffffffffffffffffffff167fa9059cbb000000000000000000000000000000000000000000000000000000001790526000906109868582610a38565b95945050505050565b600081815b8551811015610a2d5760008682815181106109ab57fe5b602002602001015190508083116109f25782816040516020018083815260200182815260200192505050604051602081830303815290604052805190602001209250610a24565b808360405160200180838152602001828152602001925050506040516020818303038152906040528051906020012092505b50600101610994565b509092149392505050565b6000610a598373ffffffffffffffffffffffffffffffffffffffff16610aac565b610a6557506000610aa6565b6040516020818451602086016000885af18015610aa3573d8015610a905760208114610a9957610aa1565b60019350610aa1565b600183511493505b505b50505b92915050565b3b15199056fe696e697469616c697a61626c653a20616c726561647920696e697469616c697a6564a26469706673582212205f53758fd76233a6a132d2b116b83e0d8495bec564c1122bf15325f7e34fbfc464736f6c63430006080033696e697469616c697a61626c653a20616c726561647920696e697469616c697a656460806040523480156200001157600080fd5b5060405162001fe738038062001fe7833981810160405260808110156200003757600080fd5b8151602083018051604051929492938301929190846401000000008211156200005f57600080fd5b9083019060208201858111156200007557600080fd5b82516401000000008111828201881017156200009057600080fd5b82525081516020918201929091019080838360005b83811015620000bf578181015183820152602001620000a5565b50505050905090810190601f168015620000ed5780820380516001836020036101000a031916815260200191505b50604052602001805160405193929190846401000000008211156200011157600080fd5b9083019060208201858111156200012757600080fd5b82516401000000008111828201881017156200014257600080fd5b82525081516020918201929091019080838360005b838110156200017157818101518382015260200162000157565b50505050905090810190601f1680156200019f5780820380516001836020036101000a031916815260200191505b50604052602001519150620001c29050848484846001600160e01b03620001cc16565b50505050620004be565b604051806040016040528060058152602001643a37b5b2b760d91b8152506000816040518082805190602001908083835b602083106200021e5780518252601f199092019160209182019101620001fd565b51815160209384036101000a60001901801990921691161790529201948552506040519384900301909220541591506200028c90505760405162461bcd60e51b815260040180806020018281038252602281526020018062001fc56022913960400191505060405180910390fd5b436000826040518082805190602001908083835b60208310620002c15780518252601f199092019160209182019101620002a0565b51815160209384036101000a600019018019909216911617905292019485525060405193849003019092209290925550620002fe905085620003c7565b83516200031390600190602087019062000419565b5082516200032990600290602086019062000419565b506003805460ff191660ff84161790556040518151829190819060208401908083835b602083106200036d5780518252601f1990920191602091820191016200034c565b5181516020939093036101000a60001901801990911692169190911790526040519201829003822093507f7bc2a48a4a566e237a12186f19d985b0f76afc9d5290601edac19876253670c292506000919050a25050505050565b60038054610100600160a81b0319166101006001600160a01b038416908102919091179091556040517fc87aeafc6e4ae6202adf4f08a76769119ae93cc129c0e0cbac08a118bc18e1ce90600090a250565b828054600181600116156101000203166002900490600052602060002090601f016020900481019282601f106200045c57805160ff19168380011785556200048c565b828001600101855582156200048c579182015b828111156200048c5782518255916020019190600101906200046f565b506200049a9291506200049e565b5090565b620004bb91905b808211156200049a5760008155600101620004a5565b90565b611af780620004ce6000396000f3fe608060405234801561001057600080fd5b506004361061018d5760003560e01c806370a08231116100e3578063d505accf1161008c578063e94a010211610066578063e94a0102146105fd578063ed24911d14610636578063f6d2ee861461063e5761018d565b8063d505accf146104f8578063dd62ed3e14610556578063e3ee160e146105915761018d565b8063a0cc6a68116100bd578063a0cc6a6814610411578063a9059cbb14610419578063cc1d4cab146104525761018d565b806370a08231146103a35780637ecebe00146103d657806395d89b41146104095761018d565b80632c4d4d18116101455780633408e4701161011f5780633408e4701461034557806340c10f191461034d57806342966c68146103865761018d565b80632c4d4d18146102ea57806330adf81f1461031f578063313ce567146103275761018d565b8063095ea7b311610176578063095ea7b31461024057806318160ddd1461028d57806323b872dd146102a75761018d565b806306fdde0314610192578063075461721461020f575b600080fd5b61019a61078d565b6040805160208082528351818301528351919283929083019185019080838360005b838110156101d45781810151838201526020016101bc565b50505050905090810190601f1680156102015780820380516001836020036101000a031916815260200191505b509250505060405180910390f35b610217610838565b6040805173ffffffffffffffffffffffffffffffffffffffff9092168252519081900360200190f35b6102796004803603604081101561025657600080fd5b5073ffffffffffffffffffffffffffffffffffffffff8135169060200135610859565b604080519115158252519081900360200190f35b610295610870565b60408051918252519081900360200190f35b610279600480360360608110156102bd57600080fd5b5073ffffffffffffffffffffffffffffffffffffffff813581169160208101359091169060400135610876565b61031d6004803603602081101561030057600080fd5b503573ffffffffffffffffffffffffffffffffffffffff16610926565b005b6102956109bd565b61032f6109e1565b6040805160ff9092168252519081900360200190f35b6102956109ea565b6102796004803603604081101561036357600080fd5b5073ffffffffffffffffffffffffffffffffffffffff81351690602001356109ee565b6102796004803603602081101561039c57600080fd5b5035610a86565b610295600480360360208110156103b957600080fd5b503573ffffffffffffffffffffffffffffffffffffffff16610a9a565b610295600480360360208110156103ec57600080fd5b503573ffffffffffffffffffffffffffffffffffffffff16610aac565b61019a610abe565b610295610b34565b6102796004803603604081101561042f57600080fd5b5073ffffffffffffffffffffffffffffffffffffffff8135169060200135610b58565b6102956004803603602081101561046857600080fd5b81019060208101813564010000000081111561048357600080fd5b82018360208201111561049557600080fd5b803590602001918460018302840111640100000000831117156104b757600080fd5b91908080601f016020809104026020016040519081016040528093929190818152602001838380828437600092019190915250929550610b65945050505050565b61031d600480360360e081101561050e57600080fd5b5073ffffffffffffffffffffffffffffffffffffffff813581169160208101359091169060408101359060608101359060ff6080820135169060a08101359060c00135610b82565b6102956004803603604081101561056c57600080fd5b5073ffffffffffffffffffffffffffffffffffffffff81358116916020013516610ca9565b61031d60048036036101208110156105a857600080fd5b5073ffffffffffffffffffffffffffffffffffffffff813581169160208101359091169060408101359060608101359060808101359060a08101359060ff60c0820135169060e0810135906101000135610cc6565b6102796004803603604081101561061357600080fd5b5073ffffffffffffffffffffffffffffffffffffffff8135169060200135610f6d565b610295610f8d565b61031d6004803603608081101561065457600080fd5b73ffffffffffffffffffffffffffffffffffffffff823516919081019060408101602082013564010000000081111561068c57600080fd5b82018360208201111561069e57600080fd5b803590602001918460018302840111640100000000831117156106c057600080fd5b91908080601f016020809104026020016040519081016040528093929190818152602001838380828437600092019190915250929594936020810193503591505064010000000081111561071357600080fd5b82018360208201111561072557600080fd5b8035906020019184600183028401116401000000008311171561074757600080fd5b91908080601f0160208091040260200160405190810160405280939291908181526020018383808284376000920191909152509295505050903560ff1691506110a19050565b60018054604080516020600284861615610100027fffffffffffffffffffffffffffffffffffffffffffffffffffffffffffffffff0190941693909304601f810184900484028201840190925281815292918301828280156108305780601f1061080557610100808354040283529160200191610830565b820191906000526020600020905b81548152906001019060200180831161081357829003601f168201915b505050505081565b600354610100900473ffffffffffffffffffffffffffffffffffffffff1681565b6000610866338484611392565b5060015b92915050565b60045481565b73ffffffffffffffffffffffffffffffffffffffff831660009081526006602090815260408083203384529091528120547fffffffffffffffffffffffffffffffffffffffffffffffffffffffffffffffff8114610910576108de818463ffffffff61140116565b73ffffffffffffffffffffffffffffffffffffffff861660009081526006602090815260408083203384529091529020555b61091b858585611473565b506001949350505050565b600354610100900473ffffffffffffffffffffffffffffffffffffffff1633146109b157604080517f08c379a000000000000000000000000000000000000000000000000000000000815260206004820152601160248201527f746f6b656e3a206e6f74206d696e746572000000000000000000000000000000604482015290519081900360640190fd5b6109ba816115fa565b50565b7f6e71edae12b1b97f4d1f60370fef10105fa2faae0126114a169c64845d6126c981565b60035460ff1681565b4690565b600354600090610100900473ffffffffffffffffffffffffffffffffffffffff163314610a7c57604080517f08c379a000000000000000000000000000000000000000000000000000000000815260206004820152601160248201527f746f6b656e3a206e6f74206d696e746572000000000000000000000000000000604482015290519081900360640190fd5b6108668383611670565b6000610a923383611721565b506001919050565b60056020526000908152604090205481565b60076020526000908152604090205481565b600280546040805160206001841615610100027fffffffffffffffffffffffffffffffffffffffffffffffffffffffffffffffff01909316849004601f810184900484028201840190925281815292918301828280156108305780601f1061080557610100808354040283529160200191610830565b7f7c7c6cdb67a18743f49ec6fa9b35f50d52ed05cbed4cc592e13b44501c1a226781565b6000610866338484611473565b805160208183018101805160008252928201919093012091525481565b42841015610bf157604080517f08c379a000000000000000000000000000000000000000000000000000000000815260206004820152601360248201527f746f6b656e3a2061757468206578706972656400000000000000000000000000604482015290519081900360640190fd5b73ffffffffffffffffffffffffffffffffffffffff80881660008181526007602090815260409182902080546001810190915582517f6e71edae12b1b97f4d1f60370fef10105fa2faae0126114a169c64845d6126c98184015280840194909452938a1660608401526080830189905260a083019390935260c08083018890528151808403909101815260e090920190528051910120610c9488828686866117e5565b610c9f888888611392565b5050505050505050565b600660209081526000928352604080842090915290825290205481565b854211610d3457604080517f08c379a000000000000000000000000000000000000000000000000000000000815260206004820152601060248201527f746f6b656e3a2061757468207761697400000000000000000000000000000000604482015290519081900360640190fd5b844210610da257604080517f08c379a000000000000000000000000000000000000000000000000000000000815260206004820152601360248201527f746f6b656e3a2061757468206578706972656400000000000000000000000000604482015290519081900360640190fd5b73ffffffffffffffffffffffffffffffffffffffff8916600090815260086020908152604080832087845290915290205460ff1615610e4257604080517f08c379a000000000000000000000000000000000000000000000000000000000815260206004820152601060248201527f746f6b656e3a2061757468207573656400000000000000000000000000000000604482015290519081900360640190fd5b604080517f7c7c6cdb67a18743f49ec6fa9b35f50d52ed05cbed4cc592e13b44501c1a226760208083019190915273ffffffffffffffffffffffffffffffffffffffff808d16838501528b166060830152608082018a905260a0820189905260c0820188905260e0808301889052835180840390910181526101009092019092528051910120610ed58a828686866117e5565b73ffffffffffffffffffffffffffffffffffffffff8a16600081815260086020908152604080832089845290915280822080547fffffffffffffffffffffffffffffffffffffffffffffffffffffffffffffff00166001179055518792917f98de503528ee59b575ef0c0a2576a82497bfc029a5685b209e9ec333479b10a591a3610f618a8a8a611473565b50505050505050505050565b600860209081526000928352604080842090915290825290205460ff1681565b60007f8b73c3c69bb8fe3d512ecc4cf759cc79239f7b179b0ffacaa9a75d522b39400f60001b600160405160200180828054600181600116156101000203166002900480156110135780601f10610ff1576101008083540402835291820191611013565b820191906000526020600020905b815481529060010190602001808311610fff575b5050915050604051602081830303815290604052805190602001207fc89efdaa54c0f20c7adf612882df0950f5a951637e0307cdcb4c672f298b8bc660001b61105a6109ea565b6040805160208082019690965280820194909452606084019290925260808301523060a0808401919091528151808403909101815260c09092019052805191012090505b90565b6040518060400160405280600581526020017f746f6b656e0000000000000000000000000000000000000000000000000000008152506000816040518082805190602001908083835b6020831061112757805182527fffffffffffffffffffffffffffffffffffffffffffffffffffffffffffffffe090920191602091820191016110ea565b51815160209384036101000a7fffffffffffffffffffffffffffffffffffffffffffffffffffffffffffffffff01801990921691161790529201948552506040519384900301909220541591506111cb9050576040517f08c379a0000000000000000000000000000000000000000000000000000000008152600401808060200182810382526022815260200180611aa06022913960400191505060405180910390fd5b436000826040518082805190602001908083835b6020831061121c57805182527fffffffffffffffffffffffffffffffffffffffffffffffffffffffffffffffe090920191602091820191016111df565b51815160209384036101000a7fffffffffffffffffffffffffffffffffffffffffffffffffffffffffffffffff0180199092169116179052920194855250604051938490030190922092909255506112759050856115fa565b8351611288906001906020870190611a07565b50825161129c906002906020860190611a07565b50600380547fffffffffffffffffffffffffffffffffffffffffffffffffffffffffffffff001660ff84161790556040518151829190819060208401908083835b6020831061131a57805182527fffffffffffffffffffffffffffffffffffffffffffffffffffffffffffffffe090920191602091820191016112dd565b5181516020939093036101000a7fffffffffffffffffffffffffffffffffffffffffffffffffffffffffffffffff01801990911692169190911790526040519201829003822093507f7bc2a48a4a566e237a12186f19d985b0f76afc9d5290601edac19876253670c292506000919050a25050505050565b73ffffffffffffffffffffffffffffffffffffffff808416600081815260066020908152604080832094871680845294825291829020859055815185815291517f8c5be1e5ebec7d5bd14f71427d1e84f3dd0314c0f7b2291e5b200ac8c7c3b9259281900390910190a3505050565b8082038281111561086a57604080517f08c379a000000000000000000000000000000000000000000000000000000000815260206004820152600f60248201527f6d6174683a20756e646572666c6f770000000000000000000000000000000000604482015290519081900360640190fd5b73ffffffffffffffffffffffffffffffffffffffff821630148015906114ae575073ffffffffffffffffffffffffffffffffffffffff821615155b61151957604080517f08c379a000000000000000000000000000000000000000000000000000000000815260206004820152600d60248201527f746f6b656e3a2062616420746f00000000000000000000000000000000000000604482015290519081900360640190fd5b73ffffffffffffffffffffffffffffffffffffffff831660009081526005602052604090205461154f908263ffffffff61140116565b73ffffffffffffffffffffffffffffffffffffffff8085166000908152600560205260408082209390935590841681522054611591908263ffffffff61199516565b73ffffffffffffffffffffffffffffffffffffffff80841660008181526005602090815260409182902094909455805185815290519193928716927fddf252ad1be2c89b69c2b068fc378daa952ba7f163c4a11628f55a4df523b3ef92918290030190a3505050565b600380547fffffffffffffffffffffff0000000000000000000000000000000000000000ff1661010073ffffffffffffffffffffffffffffffffffffffff8416908102919091179091556040517fc87aeafc6e4ae6202adf4f08a76769119ae93cc129c0e0cbac08a118bc18e1ce90600090a250565b600454611683908263ffffffff61199516565b60045573ffffffffffffffffffffffffffffffffffffffff82166000908152600560205260409020546116bc908263ffffffff61199516565b73ffffffffffffffffffffffffffffffffffffffff831660008181526005602090815260408083209490945583518581529351929391927fddf252ad1be2c89b69c2b068fc378daa952ba7f163c4a11628f55a4df523b3ef9281900390910190a35050565b73ffffffffffffffffffffffffffffffffffffffff8216600090815260056020526040902054611757908263ffffffff61140116565b73ffffffffffffffffffffffffffffffffffffffff8316600090815260056020526040902055600454611790908263ffffffff61140116565b60045560408051828152905160009173ffffffffffffffffffffffffffffffffffffffff8516917fddf252ad1be2c89b69c2b068fc378daa952ba7f163c4a11628f55a4df523b3ef9181900360200190a35050565b60006117ef610f8d565b8560405160200180807f190100000000000000000000000000000000000000000000000000000000000081525060020183815260200182815260200192505050604051602081830303815290604052805190602001209050600060018286868660405160008152602001604052604051808581526020018460ff1660ff1681526020018381526020018281526020019450505050506020604051602081039080840390855afa1580156118a6573d6000803e3d6000fd5b50506040517fffffffffffffffffffffffffffffffffffffffffffffffffffffffffffffffe0015191505073ffffffffffffffffffffffffffffffffffffffff81161580159061192157508673ffffffffffffffffffffffffffffffffffffffff168173ffffffffffffffffffffffffffffffffffffffff16145b61198c57604080517f08c379a000000000000000000000000000000000000000000000000000000000815260206004820152600e60248201527f746f6b656e3a2062616420736967000000000000000000000000000000000000604482015290519081900360640190fd5b50505050505050565b8082018281101561086a57604080517f08c379a000000000000000000000000000000000000000000000000000000000815260206004820152600e60248201527f6d6174683a206f766572666c6f77000000000000000000000000000000000000604482015290519081900360640190fd5b828054600181600116156101000203166002900490600052602060002090601f016020900481019282601f10611a4857805160ff1916838001178555611a75565b82800160010185558215611a75579182015b82811115611a75578251825591602001919060010190611a5a565b50611a81929150611a85565b5090565b61109e91905b80821115611a815760008155600101611a8b56fe696e697469616c697a61626c653a20616c726561647920696e697469616c697a6564a2646970667358221220a628a023ed22777936a6ee8e469cc60999c4bf34c0db535dc039209268bbbd5064736f6c63430006080033696e697469616c697a61626c653a20616c726561647920696e697469616c697a656460806040523480156200001157600080fd5b506040516200255d3803806200255d8339810160408190526200003491620003e9565b81806000604051620000469062000478565b90815260200160405180910390205460001415620000725762000072816001600160e01b036200009416565b506200008b90508383836001600160e01b036200016e16565b50505062000544565b604051806040016040528060038152602001621858db60ea1b815250600081604051620000c291906200043c565b908152602001604051809103902054600014620000fc5760405162461bcd60e51b8152600401620000f390620004c0565b60405180910390fd5b436000826040516200010f91906200043c565b908152604051908190036020019020556200013b63161b7d8160e21b836001600160e01b03620002b216565b806040516200014b91906200043c565b604051908190038120906000805160206200253d83398151915290600090a25050565b8160006040516200017f9062000478565b90815260200160405180910390205460001415620001ab57620001ab816001600160e01b036200009416565b6040518060400160405280600681526020016536b4b73a32b960d11b815250600081604051620001dc91906200043c565b9081526020016040518091039020546000146200020d5760405162461bcd60e51b8152600401620000f390620004c0565b436000826040516200022091906200043c565b90815260405190819003602001902055600280546001600160a01b038088166001600160a01b03199283161790925560038054928616929091169190911790556200027c63472eb0df60e01b856001600160e01b03620002b216565b806040516200028c91906200043c565b604051908190038120906000805160206200253d83398151915290600090a25050505050565b620002c9828260026001600160e01b03620002cd16565b5050565b620002e1836001600160e01b03620003b716565b15620003015760405162461bcd60e51b8152600401620000f3906200049b565b6001600160a01b038216600114156200032e5760405162461bcd60e51b8152600401620000f39062000502565b6001600160e01b0319831660008181526001602090815260408083206001600160a01b03878116808652919093529281902080546001600160a01b0319169286169290921790915551909133917fc62063b81f7036fd97a0dc546516e99f11004d2d76ca0fddd3866346c86e709190620003aa90869062000487565b60405180910390a4505050565b6001600160e01b0319166000908152600160208181526040808420838552909152909120546001600160a01b03161490565b600080600060608486031215620003fe578283fd5b83516200040b816200052b565b60208501519093506200041e816200052b565b604085015190925062000431816200052b565b809150509250925092565b60008251815b818110156200045e576020818601810151858301520162000442565b818111156200046d5782828501525b509190910192915050565b621858db60ea1b815260030190565b6001600160a01b0391909116815260200190565b6020808252600b908201526a30b1b61d10333937bd32b760a91b604082015260600190565b60208082526022908201527f696e697469616c697a61626c653a20616c726561647920696e697469616c697a604082015261195960f21b606082015260800190565b6020808252600f908201526e61636c3a2062616420667265657a6560881b604082015260600190565b6001600160a01b03811681146200054157600080fd5b50565b611fe980620005546000396000f3fe608060405234801561001057600080fd5b50600436106101005760003560e01c8063a157a10d11610097578063cc1d4cab11610066578063cc1d4cab14610210578063d3feb83014610230578063ec8528f914610243578063fc0c546a1461024b57610100565b8063a157a10d146101c4578063a2157227146101d7578063bdf9a726146101ea578063c0c53b8b146101fd57610100565b80637e8c7f08116100d35780637e8c7f0814610169578063901d13e21461017e57806394d008ef1461019157806396fc8abd146101a457610100565b8063097c8108146101055780631c47671b1461012e578063495a9825146101435780635884973414610156575b600080fd5b6101186101133660046119fc565b610253565b6040516101259190611c94565b60405180910390f35b61014161013c366004611858565b6104d5565b005b6101186101513660046119a8565b61062f565b6101416101643660046119c4565b61068a565b61017161072d565b6040516101259190611c9f565b61014161018c3660046117e2565b610751565b61014161019f3660046117fe565b61085d565b6101b76101b23660046119c4565b6109fa565b6040516101259190611c4d565b6101416101d23660046119c4565b610a2d565b6101416101e5366004611a5c565b610ad0565b6101416101f83660046119a8565b610b7a565b61014161020b366004611aa6565b610c20565b61022361021e366004611ac5565b610dc2565b6040516101259190611e6f565b6101b761023e366004611928565b610ddf565b6101b7611071565b6101b761108d565b7fffffffff000000000000000000000000000000000000000000000000000000008316600090815260016020908152604080832033845290915281205473ffffffffffffffffffffffffffffffffffffffff16801561038c5773ffffffffffffffffffffffffffffffffffffffff8116600214156102d55760019150506104ce565b6040517f097c810800000000000000000000000000000000000000000000000000000000815273ffffffffffffffffffffffffffffffffffffffff82169063097c81089061032b90889088908890600401611ccc565b602060405180830381600087803b15801561034557600080fd5b505af1158015610359573d6000803e3d6000fd5b505050506040513d601f19601f8201168201806040525081019061037d9190611908565b1561038c5760019150506104ce565b7fffffffff000000000000000000000000000000000000000000000000000000008516600090815260016020908152604080832073ffffffffffffffffffffffffffffffffffffffff8085529252909120541680156104c75773ffffffffffffffffffffffffffffffffffffffff81166002141561040f576001925050506104ce565b6040517f097c810800000000000000000000000000000000000000000000000000000000815273ffffffffffffffffffffffffffffffffffffffff82169063097c81089061046590899089908990600401611ccc565b602060405180830381600087803b15801561047f57600080fd5b505af1158015610493573d6000803e3d6000fd5b505050506040513d601f19601f820116820180604052508101906104b79190611908565b156104c7576001925050506104ce565b6000925050505b9392505050565b60408051602036601f81018290048202830182019093528282527f586df604000000000000000000000000000000000000000000000000000000009261053892849233926000918190840183828082843760009201919091525061025392505050565b610577576040517f08c379a000000000000000000000000000000000000000000000000000000000815260040161056e90611d36565b60405180910390fd5b60005b825181101561062a5761058b6116cc565b83828151811061059757fe5b60200260200101519050600060028111156105ae57fe5b815160028111156105bb57fe5b14156105d8576105d3816020015182604001516110a9565b610621565b6001815160028111156105e757fe5b14156105ff576105d3816020015182604001516110b5565b60028151600281111561060e57fe5b141561062157610621816020015161119d565b5060010161057a565b505050565b7fffffffff00000000000000000000000000000000000000000000000000000000811660009081526001602081815260408084208385529091529091205473ffffffffffffffffffffffffffffffffffffffff16145b919050565b60408051602036601f81018290048202830182019093528282527f586df60400000000000000000000000000000000000000000000000000000000926106ed92849233926000918190840183828082843760009201919091525061025392505050565b610723576040517f08c379a000000000000000000000000000000000000000000000000000000000815260040161056e90611d36565b61062a83836110b5565b7f586df6040000000000000000000000000000000000000000000000000000000081565b63901d13e260e01b61079b81336000368080601f01602080910402602001604051908101604052809392919081815260200183838082843760009201919091525061025392505050565b6107d1576040517f08c379a000000000000000000000000000000000000000000000000000000000815260040161056e90611d36565b6002546040517f2c4d4d1800000000000000000000000000000000000000000000000000000000815273ffffffffffffffffffffffffffffffffffffffff90911690632c4d4d1890610827908590600401611c4d565b600060405180830381600087803b15801561084157600080fd5b505af1158015610855573d6000803e3d6000fd5b505050505050565b60408051602036601f81018290048202830182019093528282527f472eb0df00000000000000000000000000000000000000000000000000000000926108c092849233926000918190840183828082843760009201919091525061025392505050565b6108f6576040517f08c379a000000000000000000000000000000000000000000000000000000000815260040161056e90611d36565b6002546040517f40c10f1900000000000000000000000000000000000000000000000000000000815273ffffffffffffffffffffffffffffffffffffffff909116906340c10f199061094e9088908890600401611c6e565b602060405180830381600087803b15801561096857600080fd5b505af115801561097c573d6000803e3d6000fd5b505050506040513d601f19601f820116820180604052508101906109a09190611908565b508473ffffffffffffffffffffffffffffffffffffffff167ff8e46b9f2ac39b0277e905f82e86502779203bea0700bf987d3707e11636a39d8585856040516109eb93929190611e78565b60405180910390a25050505050565b600160209081526000928352604080842090915290825290205473ffffffffffffffffffffffffffffffffffffffff1681565b60408051602036601f81018290048202830182019093528282527f586df6040000000000000000000000000000000000000000000000000000000092610a9092849233926000918190840183828082843760009201919091525061025392505050565b610ac6576040517f08c379a000000000000000000000000000000000000000000000000000000000815260040161056e90611d36565b61062a83836110a9565b60408051602036601f81018290048202830182019093528282527f586df6040000000000000000000000000000000000000000000000000000000092610b3392849233926000918190840183828082843760009201919091525061025392505050565b610b69576040517f08c379a000000000000000000000000000000000000000000000000000000000815260040161056e90611d36565b610b7484848461126e565b50505050565b60408051602036601f81018290048202830182019093528282527f586df6040000000000000000000000000000000000000000000000000000000092610bdd92849233926000918190840183828082843760009201919091525061025392505050565b610c13576040517f08c379a000000000000000000000000000000000000000000000000000000000815260040161056e90611d36565b610c1c8261119d565b5050565b816000604051610c2f90611c24565b90815260200160405180910390205460001415610c4f57610c4f816113c3565b6040518060400160405280600681526020017f6d696e7465720000000000000000000000000000000000000000000000000000815250600081604051610c959190611c08565b908152602001604051809103902054600014610cdd576040517f08c379a000000000000000000000000000000000000000000000000000000000815260040161056e90611da4565b43600082604051610cee9190611c08565b908152604051908190036020019020556002805473ffffffffffffffffffffffffffffffffffffffff8088167fffffffffffffffffffffffff0000000000000000000000000000000000000000928316179092556003805492861692909116919091179055610d7d7f472eb0df00000000000000000000000000000000000000000000000000000000856110a9565b80604051610d8b9190611c08565b604051908190038120907f7bc2a48a4a566e237a12186f19d985b0f76afc9d5290601edac19876253670c290600090a25050505050565b805160208183018101805160008252928201919093012091525481565b600063d3feb83060e01b6394d008ef60e01b18610e3481336000368080601f01602080910402602001604051908101604052809392919081815260200183838082843760009201919091525061025392505050565b610e6a576040517f08c379a000000000000000000000000000000000000000000000000000000000815260040161056e90611d36565b600254604051600091610f62917fbe13f47c0000000000000000000000000000000000000000000000000000000091610ec09173ffffffffffffffffffffffffffffffffffffffff909116908d90602401611c6e565b604080517fffffffffffffffffffffffffffffffffffffffffffffffffffffffffffffffe08184030181529190526020810180517bffffffffffffffffffffffffffffffffffffffffffffffffffffffff167fffffffff000000000000000000000000000000000000000000000000000000009093169290921790915260035473ffffffffffffffffffffffffffffffffffffffff169063ffffffff6114de16565b6002546040517f40c10f1900000000000000000000000000000000000000000000000000000000815291925073ffffffffffffffffffffffffffffffffffffffff16906340c10f1990610fbb9084908c90600401611c6e565b602060405180830381600087803b158015610fd557600080fd5b505af1158015610fe9573d6000803e3d6000fd5b505050506040513d601f19601f8201168201806040525081019061100d9190611908565b50888173ffffffffffffffffffffffffffffffffffffffff167ff5eb12d9e3fbc57fd00a7246b6bb142b1c5f6e7cdd9f9f17efd5c2163440e0f48a8a8a8a8a60405161105d959493929190611e92565b60405180910390a398975050505050505050565b60035473ffffffffffffffffffffffffffffffffffffffff1681565b60025473ffffffffffffffffffffffffffffffffffffffff1681565b610c1c8282600261126e565b6110be8261062f565b156110f5576040517f08c379a000000000000000000000000000000000000000000000000000000000815260040161056e90611d6d565b7fffffffff000000000000000000000000000000000000000000000000000000008216600081815260016020908152604080832073ffffffffffffffffffffffffffffffffffffffff8616808552925280832080547fffffffffffffffffffffffff0000000000000000000000000000000000000000169055519092339290917f682f2c466c1e9f6883eb72cbced01373e1cb18b05ae5c8bc04dc73d73e29f8cd9190a45050565b6111a68161062f565b156111dd576040517f08c379a000000000000000000000000000000000000000000000000000000000815260040161056e90611d6d565b7fffffffff000000000000000000000000000000000000000000000000000000008116600081815260016020818152604080842083855290915280832080547fffffffffffffffffffffffff000000000000000000000000000000000000000016909217909155513392917f049c6b8b07a879425742523fa80f8ffb25e39ad518c93a5896a0df19518397e591a350565b6112778361062f565b156112ae576040517f08c379a000000000000000000000000000000000000000000000000000000000815260040161056e90611d6d565b73ffffffffffffffffffffffffffffffffffffffff8216600114156112ff576040517f08c379a000000000000000000000000000000000000000000000000000000000815260040161056e90611e01565b7fffffffff000000000000000000000000000000000000000000000000000000008316600081815260016020908152604080832073ffffffffffffffffffffffffffffffffffffffff878116808652919093529281902080547fffffffffffffffffffffffff0000000000000000000000000000000000000000169286169290921790915551909133917fc62063b81f7036fd97a0dc546516e99f11004d2d76ca0fddd3866346c86e7091906113b6908690611c4d565b60405180910390a4505050565b6040518060400160405280600381526020017f61636c00000000000000000000000000000000000000000000000000000000008152506000816040516114099190611c08565b908152602001604051809103902054600014611451576040517f08c379a000000000000000000000000000000000000000000000000000000000815260040161056e90611da4565b436000826040516114629190611c08565b9081526040519081900360200190205561149c7f586df60400000000000000000000000000000000000000000000000000000000836110a9565b806040516114aa9190611c08565b604051908190038120907f7bc2a48a4a566e237a12186f19d985b0f76afc9d5290601edac19876253670c290600090a25050565b60006114e9836115a6565b9050600060608273ffffffffffffffffffffffffffffffffffffffff16846040516115149190611c08565b6000604051808303816000865af19150503d8060008114611551576040519150601f19603f3d011682016040523d82523d6000602084013e611556565b606091505b50915091508161156582611613565b9061159d576040517f08c379a000000000000000000000000000000000000000000000000000000000815260040161056e9190611d23565b50505092915050565b600060606115b383611654565b90506037602082016000f0915073ffffffffffffffffffffffffffffffffffffffff821661160d576040517f08c379a000000000000000000000000000000000000000000000000000000000815260040161056e90611e38565b50919050565b60606044825110156116345750604080516020810190915260008152610685565b6004820191508180602001905181019061164e9190611b00565b92915050565b604080516037808252606082810190935260208201818036833750507f3d602d80600a3d3981f3363d3d373d3d3d363d7300000000000000000000000060208301525060609290921b6034830152507f5af43d82803e903d91602b57fd5bf30000000000000000000000000000000000604882015290565b6040805160608101909152806000815260006020820181905260409091015290565b60008083601f8401126116ff578182fd5b50813567ffffffffffffffff811115611716578182fd5b60208301915083602082850101111561172e57600080fd5b9250929050565b600082601f830112611745578081fd5b813561175861175382611ef2565b611ecb565b915080825283602082850101111561176f57600080fd5b8060208401602084013760009082016020015292915050565b600060608284031215611799578081fd5b6117a36060611ecb565b90508135600381106117b457600080fd5b815260208201356117c481611f85565b602082015260408201356117d781611f60565b604082015292915050565b6000602082840312156117f3578081fd5b81356104ce81611f60565b60008060008060608587031215611813578283fd5b843561181e81611f60565b935060208501359250604085013567ffffffffffffffff811115611840578283fd5b61184c878288016116ee565b95989497509550505050565b6000602080838503121561186a578182fd5b823567ffffffffffffffff80821115611881578384fd5b81850186601f820112611892578485fd5b80359250818311156118a2578485fd5b6118af8485850201611ecb565b83815284810192508185016060808602840187018a10156118ce578788fd5b8793505b858410156118fa576118e48a83611788565b85529386019360019390930192908101906118d2565b509098975050505050505050565b600060208284031215611919578081fd5b815180151581146104ce578182fd5b60008060008060008060808789031215611940578182fd5b8635955060208701359450604087013567ffffffffffffffff80821115611965578384fd5b6119718a838b016116ee565b90965094506060890135915080821115611989578384fd5b5061199689828a016116ee565b979a9699509497509295939492505050565b6000602082840312156119b9578081fd5b81356104ce81611f85565b600080604083850312156119d6578182fd5b82356119e181611f85565b915060208301356119f181611f60565b809150509250929050565b600080600060608486031215611a10578283fd5b8335611a1b81611f85565b92506020840135611a2b81611f60565b9150604084013567ffffffffffffffff811115611a46578182fd5b611a5286828701611735565b9150509250925092565b600080600060608486031215611a70578081fd5b8335611a7b81611f85565b92506020840135611a8b81611f60565b91506040840135611a9b81611f60565b809150509250925092565b600080600060608486031215611aba578081fd5b8335611a7b81611f60565b600060208284031215611ad6578081fd5b813567ffffffffffffffff811115611aec578182fd5b611af884828501611735565b949350505050565b600060208284031215611b11578081fd5b815167ffffffffffffffff811115611b27578182fd5b80830184601f820112611b38578283fd5b80519150611b4861175383611ef2565b828152856020848401011115611b5c578384fd5b611b6d836020830160208501611f34565b95945050505050565b600082845282826020860137806020848601015260207fffffffffffffffffffffffffffffffffffffffffffffffffffffffffffffffe0601f85011685010190509392505050565b60008151808452611bd6816020860160208601611f34565b601f017fffffffffffffffffffffffffffffffffffffffffffffffffffffffffffffffe0169290920160200192915050565b60008251611c1a818460208701611f34565b9190910192915050565b7f61636c0000000000000000000000000000000000000000000000000000000000815260030190565b73ffffffffffffffffffffffffffffffffffffffff91909116815260200190565b73ffffffffffffffffffffffffffffffffffffffff929092168252602082015260400190565b901515815260200190565b7fffffffff0000000000000000000000000000000000000000000000000000000091909116815260200190565b60007fffffffff000000000000000000000000000000000000000000000000000000008516825273ffffffffffffffffffffffffffffffffffffffff8416602083015260606040830152611b6d6060830184611bbe565b6000602082526104ce6020830184611bbe565b60208082526009908201527f61636c3a20617574680000000000000000000000000000000000000000000000604082015260600190565b6020808252600b908201527f61636c3a2066726f7a656e000000000000000000000000000000000000000000604082015260600190565b60208082526022908201527f696e697469616c697a61626c653a20616c726561647920696e697469616c697a60408201527f6564000000000000000000000000000000000000000000000000000000000000606082015260800190565b6020808252600f908201527f61636c3a2062616420667265657a650000000000000000000000000000000000604082015260600190565b60208082526019908201527f70726f78792d666163746f72793a206261642063726561746500000000000000604082015260600190565b90815260200190565b600084825260406020830152611b6d604083018486611b76565b600086825260606020830152611eac606083018688611b76565b8281036040840152611ebf818587611b76565b98975050505050505050565b60405181810167ffffffffffffffff81118282101715611eea57600080fd5b604052919050565b600067ffffffffffffffff821115611f08578081fd5b50601f017fffffffffffffffffffffffffffffffffffffffffffffffffffffffffffffffe01660200190565b60005b83811015611f4f578181015183820152602001611f37565b83811115610b745750506000910152565b73ffffffffffffffffffffffffffffffffffffffff81168114611f8257600080fd5b50565b7fffffffff0000000000000000000000000000000000000000000000000000000081168114611f8257600080fdfea2646970667358221220aaa9e1ee548dcc3a30c2b75a55edeb5e24b7bc95d65884e26eb721e31492819864736f6c634300060800337bc2a48a4a566e237a12186f19d985b0f76afc9d5290601edac19876253670c2",
  "devdoc": {
    "methods": {}
  },
  "userdoc": {
    "methods": {}
  },
  "storageLayout": {
    "storage": [
      {
        "astId": 3490,
        "contract": "@aragon/govern-token/contracts/GovernTokenFactory.sol:GovernTokenFactory",
        "label": "tokenBase",
        "offset": 0,
        "slot": "0",
        "type": "t_address"
      },
      {
        "astId": 3492,
        "contract": "@aragon/govern-token/contracts/GovernTokenFactory.sol:GovernTokenFactory",
        "label": "minterBase",
        "offset": 0,
        "slot": "1",
        "type": "t_address"
      },
      {
        "astId": 3494,
        "contract": "@aragon/govern-token/contracts/GovernTokenFactory.sol:GovernTokenFactory",
        "label": "distributorBase",
        "offset": 0,
        "slot": "2",
        "type": "t_address"
      }
    ],
    "types": {
      "t_address": {
        "encoding": "inplace",
        "label": "address",
        "numberOfBytes": "20"
      }
    }
  }
}